:1000000084C000009EC000009CC000009AC0000098
:1000100098C0000096C0000094C0000092C000008C
:1000200090C000008EC000008CC000009EC6000082
:1000300043C7000086C0000084C0000082C00000EA
:1000400080C000007EC000007CC000007AC00000BC
:1000500078C0000076C0000074C0000072C00000CC
:1000600070C000006EC000006CC000006AC00000DC
:1000700068C000002E034C005500460041002000DF
:100080004D006100730073002000530074006F0086
:1000900072006100670065002000440065006D008B
:1000A0006F00000018034400650061006E0020002E
:1000B000430061006D0065007200610000000403F0
:1000C0000904090220000101008032090400000235
:1000D000080650000705830240000007050402409F
:1000E00000001201100100000008EB034520000091
:1000F0000102DC015720256C692025690D0A005298
:1001000020256C692025690D0A0011241FBECFEF40
:10011000D2E0DEBFCDBF11E0A0E0B1E0EEEBF7E151
:1001200002C005900D92A434B107D9F711E0A4E400
:10013000B1E001C01D92A637B107E1F75AD10C9486
:10014000DD0B5ECF9BB18095906389238BB90895B9
:1001500080914401089584B7877F84BF28E10FB65A
:10016000F89420936000109260000FBE90E080E849
:100170000FB6F89480936100909361000FBE8AB12E
:1001800080638AB98BB180638BB987E690E09093E6
:10019000CD008093CC0086E08093CA001092C80006
:1001A0002093C900539A5A9AFCD2D4C580E2CADF80
:1001B00010924401089580E0C5CF80E1C3DF83E061
:1001C00061E842E3D1D3882311F480E3BBDF84E00C
:1001D00060E842E3C9D3882311F480E3B3CF0895E4
:1001E000809169018E3F79F08F3FF1F48091680131
:1001F0008132D1F48091E800877F8093E80081E02C
:1002000080934401D8C380916801813A69F4809158
:10021000E800877F8093E8001092F1008091E80069
:100220008E778093E800C7C308958EB3843009F0B9
:10023000DFC08093E9008091E80082FFAFC085E4D1
:1002400091E06FE070E048EA50E04BD480914401C7
:10025000882309F0A3C08091450190914601A091A7
:100260004701B0914801853523E5920722E4A207B2
:1002700023E4B20789F480915201882369F48091C4
:10028000510190E08F719070009731F460915301AB
:10029000662311F0613170F08091EB0080628093F1
:1002A000EB0083E08093E9008091EB008062809313
:1002B000EB0074C084E591E070E048EA50E011D4AE
:1002C00080914401882309F069C08091E8008B7710
:1002D0008093E80080E036DF8091510187FF03C002
:1002E00083E08093E900C3D191E0982790930C01BB
:1002F0004091490150914A0160914B0170914C012C
:100300004093040150930501609306017093070127
:1003100040914D0150914E0160914F0170915001FB
:10032000409308015093090160930A0170930B01F7
:10033000913051F4411551056105710529F0809105
:10034000EB0080628093EB0084E08093E90004C0BE
:1003500080914401882301F58091EB0085FDF8CF61
:1003600083E08093E90004C0809144018823A1F4D4
:100370008091EB0085FDF8CF80E091E06DE070E0CA
:1003800048EA50E064D380914401882329F48091A5
:10039000E8008E778093E80080E1D4DE809144010C
:1003A000882331F180E18093EA001092EA0088E02E
:1003B0008093EA001092EA0084E08093E900809143
:1003C000EB0080618093EB008091EB00886080936C
:1003D000EB0083E08093E9008091EB0080618093E3
:1003E000EB008091EB0088608093EB001092440159
:1003F0000895B1DE80E0A6DE789417DFFFD6FDCF4A
:10040000923029F0933041F09130E9F417C080E246
:1004100090E0E2ECF0E01BC0813041F0813018F058
:10042000823089F406C0EEEBF0E005C0E4EAF0E0CB
:1004300002C0E4E7F0E0849190E009C082E190E03E
:10044000E2EEF0E004C080E090E0E0E0F0E0DA010D
:100450001196FC93EE930895AF92BF92CF92DF92E4
:10046000EF92FF920F931F93CF93DF93CDB7DEB739
:10047000ADB6BEB6DDB6CEB60091580110915701AB
:100480008091550190E083709070009721F48091E5
:100490005601882361F080910F01807F85608093F1
:1004A0000F0184E28093190110921A0139C078017A
:1004B0000532110518F084E2E82EF12C8FE191E06D
:1004C000B70148EA50E0C3D2B8016E197F098DB771
:1004D0009EB7861B970B0FB6F8949EBF0FBE8DBFBD
:1004E000019648EA50E0B3D28091E8008E7780937D
:1004F000E800A70160E070E080914D0190914E010D
:10050000A0914F01B0915001841B950BA60BB70B26
:1005100080934D0190934E01A0934F01B0935001F1
:10052000DDBECEBE0FB6F894BEBE0FBEADBEDF912F
:10053000CF911F910F91FF90EF90DF90CF90BF90E0
:10054000AF900895EF92FF920F931F93CF93DF9395
:10055000CDB7DEB7EDB6FEB600915801102F0331CE
:1005600008F012E18DE091E0612F70E048EA50E080
:100570006ED2602F70E0611B71098DB79EB7861B2C
:10058000970B0FB6F8949EBF0FBE8DBF019648EA39
:1005900050E05DD28091E8008E778093E8008091F2
:1005A0004D0190914E01A0914F01B0915001811BDE
:1005B0009109A109B10980934D0190934E01A09337
:1005C0004F01B09350010FB6F894FEBE0FBEEDBEC2
:1005D000DF91CF911F910F91FF90EF900895CF93EE
:1005E000DF934091590150915801609157017091EA
:1005F000560190915C01C92F90915B01D92F411553
:1006000051056105710561F080910F01807F856062
:1006100080930F0181E28093190110921A0124C086
:10062000882331F060E070E0CB01AE0132D105C02B
:1006300060E070E0CB01AE01B5D0AE0160E070E0EB
:1006400080914D0190914E01A0914F01B0915001C8
:10065000841B950BA60BB70B80934D0190934E0115
:10066000A0934F01B0935001DF91CF9108959091E5
:100670000F01907F90930F011092190110921A01AF
:10068000809154018E3109F464C08F3170F483304D
:10069000F1F0843020F4882309F45BC063C0823118
:1006A000A1F08D3109F05EC042C0883209F44EC01D
:1006B000893220F4853209F055C00BC08A3209F422
:1006C00043C08F3209F04EC044C0C6DE54C03ADF8A
:1006D00052C01092F1001092F1001092F1001092AD
:1006E000F1001092F1001092F1001092F10081E0FF
:1006F0008093F100809144018823E9F58091E8001E
:100700008E778093E80080914D0190914E01A091E9
:100710004F01B09150010897A109B10980934D0193
:1007200090934E01A0934F01B093500124C080914B
:10073000550182FD05C0956090930F0184E219C0B8
:10074000946090930F0117C080E001C081E047DF03
:1007500012C010924D0110924E0110924F01109252
:10076000500109C080910F01807F856080930F0147
:1007700080E28093190190910F019F7081E009F050
:1007800080E00895FC0109C081919091C80095FF17
:10079000FCCF8093CE006150704016161706A4F36C
:1007A00008950895CF93DF9300D000D000D0CDB747
:1007B000DEB769837A838B839C839A015E834D8342
:1007C000462F572F682F792F84EF90E029D512D12B
:1007D000882309F055C08091C80085FFFCCF85E0D3
:1007E0008093CE00CE01019664E070E0CBDF809173
:1007F000C80085FFFCCF86E08093CE00CE01059631
:1008000062E070E0BFDF22E02EC08091C80085FF6B
:10081000FCCF2093CE0080E092E03091F100409137
:10082000C80045FFFCCF3093CE000197B1F780910F
:100830004401882341F08091C80085FFFCCF87E008
:100840008093CE001DC089819A81AB81BC810196C5
:10085000A11DB11D89839A83AB83BC838D819E8149
:1008600001979E838D838D819E81009771F6809183
:10087000E80085FD05C08091E8008B778093E80053
:1008800026960FB6F894DEBF0FBECDBFDF91CF9195
:100890000895CF93DF9300D000D000D0CDB7DEB75E
:1008A00069837A838B839C839A015E834D83462F71
:1008B000572F682F792F8FEF90E0B2D49BD08823E9
:1008C00009F049C08091C80085FFFCCF85E0809386
:1008D000CE00CE01019664E070E054DF8091C80044
:1008E00085FFFCCF86E08093CE00CE01059662E0C6
:1008F00070E048DF21E022C08091C80085FFFCCF76
:100900002093CE0080E190E03091C80037FFFCCF0B
:100910003091CE003093F1000197B1F789819A812F
:10092000AB81BC810196A11DB11D89839A83AB83E4
:10093000BC838D819E8101979E838D838D819E8155
:100940000097D1F68091E80085FD05C08091E80010
:100950008E778093E80026960FB6F894DEBF0FBE20
:10096000CDBFDF91CF9108958093E900EBEEF0E0E9
:10097000808181608083EDEEF0E010826093EC0076
:1009800040838091EE00881F8827881F0895109269
:10099000F40080E08093E9001092F0001092E800EB
:1009A0001092ED009091EB009E7F9093EB008F5F93
:1009B000853081F708958091680187FF11C003C0D9
:1009C0008EB38823B1F08091E80082FFF9CF809147
:1009D000E8008B778093E80008958EB3882349F070
:1009E0008091E80080FFF9CF8091E8008E778093B6
:1009F000E800089585E69091EC0090FF05C0909185
:100A0000E80090FF05C01BC09091E80092FD17C060
:100A10009EB39923B1F09EB39530A9F09091EB006D
:100A200095FD13C09091E10092FFE5CF9091E10018
:100A30009B7F9093E1008150F1F684E0089580E07F
:100A4000089582E0089583E0089581E00895AF92CB
:100A5000BF92CF92DF92EF92FF920F931F93CF93AB
:100A6000DF930F92CDB7DEB7D82E5B017A01998361
:100A7000C1DFC82E9981882339F50D2D192F1CC08F
:100A80008091E80085FD10C08091E8008E7780930A
:100A9000E800E114F10421F0F7010995813081F0BB
:100AA000A9DF882349F00FC0F80181918F0180935D
:100AB000F1000894A108B108A114B10409F704C019
:100AC00035E0C32E01C0C82E8C2D0F90DF91CF9141
:100AD0001F910F91FF90EF90DF90CF90BF90AF905C
:100AE0000895AF92BF92CF92DF92EF92FF920F9351
:100AF0001F93CF93DF930F92CDB7DEB7D82E5B0154
:100B00007A01998377DFC82E9981882339F50D2DD5
:100B1000192F1CC08091E80085FD10C08091E8006D
:100B20008B778093E800E114F10421F0F701099537
:100B3000813081F05FDF882349F00FC08091F100A0
:100B4000F80181938F010894A108B108A114B104A0
:100B500009F704C0F5E0CF2E01C0C82E8C2D0F90F0
:100B6000DF91CF911F910F91FF90EF90DF90CF9089
:100B7000BF90AF90089520916E0130916F012617BC
:100B8000370720F4B901FC0190E032C0611571050E
:100B9000D1F72091E8002E772093E800F4CF8091E0
:100BA000E80083FD37C08091E80082FD2DC08EB340
:100BB0008823A1F18EB3853079F18091E80080FF20
:100BC00017C08091F20006C091919093F10061509E
:100BD00070408F5F6115710511F08830A8F391E0C6
:100BE000883009F090E08091E8008E778093E800EB
:100BF00061157105A1F6992391F606C08EB388237D
:100C000069F08EB3853061F08091E80082FFF6CF05
:100C100080E0089581E0089583E0089582E00895DA
:100C200083E0089520916E0130916F0126173707F8
:100C300020F4B9019C0190E035C061157105D1F730
:100C40002091E8002E772093E800F4CF8091E8000F
:100C500083FD3AC08091E80082FD30C08EB38823C6
:100C6000B9F18EB3853091F18091E80080FF1AC010
:100C70008091F20009C0F9012F5F3F4FE491E093AA
:100C8000F100615070408F5F6115710511F088307F
:100C900090F391E0883009F090E08091E8008E7741
:100CA0008093E8006115710589F6992379F606C0ED
:100CB0008EB3882369F08EB3853061F08091E800AF
:100CC00082FFF6CF80E0089581E0089583E00895E3
:100CD00082E0089583E0089542D044D01EBA109275
:100CE0006601109265011092640184E089BD89B5A6
:100CF000826089BD09B400FEFDCF8091D800982F95
:100D00009F779093D80080688093D800809163008B
:100D10008E7F809363008091D8008F7D8093D80070
:100D20008091E0008E7F8093E0008091E1008E7FD3
:100D30008093E1008091E20081608093E2008091E5
:100D4000E100877F8093E1008091E20088608093DA
:100D5000E2000895C1DF81E0809367010895109259
:100D6000E20008951092E10008951F920F920FB6CD
:100D70000F9211242F933F934F935F936F937F9321
:100D80008F939F93AF93BF93EF93FF938091E10075
:100D900080FF1BC08091E20080FF17C08091E100BE
:100DA0008E7F8093E1008091E2008E7F8093E2004D
:100DB0008091E20080618093E2008091D80080629F
:100DC0008093D80019BC1EBAF6D98091E10084FF47
:100DD00029C08091E20084FF25C084E089BD89B5E7
:100DE000826089BD09B400FEFDCF8091D8008F7D5F
:100DF0008093D8008091E1008F7E8093E100809104
:100E0000E2008F7E8093E2008091E2008160809317
:100E1000E20080916601882311F084E001C081E046
:100E20008EBBC4D98091E10083FF27C08091E2008E
:100E300083FF23C08091E100877F8093E10082E0FF
:100E40008EBB109266018091E1008E7F8093E1005D
:100E50008091E2008E7F8093E2008091E2008061C9
:100E60008093E20094DD80E060E042E07DDD8091EF
:100E7000F00088608093F000C0D18091E10082FF93
:100E80000AC08091E20082FF06C08091E1008B7F62
:100E90008093E100B2D1FF91EF91BF91AF919F910B
:100EA0008F917F916F915F914F913F912F910F9013
:100EB0000FBE0F901F9018951F920F920FB60F92B2
:100EC0001124EF92FF920F931F932F933F934F9311
:100ED0005F936F937F938F939F93AF93BF93EF93A2
:100EE000FF93CF93DF930F92CDB7DEB789EEE82E55
:100EF000F12CF70180818770108200EF10E0F8017B
:100F00009081977F90837894898322D0F894F70119
:100F10001082F8019081986090838981F701808325
:100F20000F90DF91CF91FF91EF91BF91AF919F9182
:100F30008F917F916F915F914F913F912F911F9171
:100F40000F91FF90EF900F900FBE0F901F9018958C
:100F50001F93CF93DF93CDB7DEB7AC970FB6F8945E
:100F6000DEBF0FBECDBF80E0E8E6F1E09091F1007A
:100F700091938F5F8830D1F780916801209169014A
:100F8000253009F484C0263040F42130A1F121300D
:100F900070F0233009F018C12EC0283009F4E9C0E0
:100FA000293009F4F8C0263009F00EC18EC080380F
:100FB00021F0823809F008C108C080916401909145
:100FC0006501992371F082600CC080916C0187707B
:100FD0008093E9009091EB0081E095FF80E0109212
:100FE000E9009091E800977F9093E8008093F100EA
:100FF0001092F100C9C0882319F0823009F0E4C0D2
:1010000090E08F719070009729F08230910509F07F
:10101000DCC00BC080916A01813009F0D6C023305A
:1010200009F080E0809365012CC080916A018823DB
:1010300041F520916C01277009F4C7C02093E900A5
:101040008091EB0080FFC1C080916901833021F461
:101050008091EB00806213C08091EB0080618093EF
:10106000EB0081E090E002C0880F991F2A95E2F71B
:101070008093EA001092EA008091EB0088608093F0
:10108000EB001092E9008091E800877F80C0882300
:1010900009F09AC010916A018091E800877F8093DF
:1010A000E80089DC04C08EB3882309F48EC08091E7
:1010B000E80080FFF8CF1F7711F083E001C082E0E5
:1010C0008EBB10681093E30080C08058823008F017
:1010D0007BC080916A0190916B0123E08C3D920767
:1010E00089F583E08C838AE28B833FB7F894DE0135
:1010F000159680E090E02EE041E2E22FF0E0409390
:101100005700E49180FF03C0E295EF702F5FEF700E
:101110005E2F505D5A3308F0595F5C9311961C9214
:101120001197129601968431910539F73FBF80914E
:10113000E800877F8093E800CE0103966AE270E0C2
:101140001ADD11C060916C01AE014F5F5F4F58D93D
:10115000BC010097D1F18091E800877F8093E8007F
:1011600089819A815FDD8091E8008B778093E80028
:101170002CC0803849F58091E800877F8093E80093
:10118000809166018093F1008091E8008E778093D2
:10119000E80011DC1AC08823B9F490916A019230FA
:1011A000A0F48091E800877F8093E8009093660127
:1011B00002DC80916601882311F084E001C083E0A5
:1011C0008EBB0E94DD0001C00BD88091E80083FF38
:1011D0000AC08091EB0080628093EB008091E80070
:1011E000877F8093E800AC960FB6F894DEBF0FBE01
:1011F000CDBFDF91CF911F9108950895CF938EB306
:10120000882361F0C091E900C7701092E9008091D5
:10121000E80083FF01C09CDEC093E900CF910895F0
:10122000A0E0B0E0E5E1F9E0A1C2FE0135966191F0
:1012300071918091720190917301DC0113962C9150
:101240001397286013962C93AF010AD0E091720196
:10125000F09173012381277F23832096E2E0A2C2CD
:10126000ADE0B0E0E5E3F9E071C23C017D876C8759
:101270005A01FC0117821682838181FFB7C12E01BA
:101280000894411C511CF3019381EC85FD8593FD6D
:10129000859193FF8191FD87EC87882309F4A2C192
:1012A000853241F493FD859193FF8191FD87EC8711
:1012B000853221F490E0B301B4D1E5CFDD24EE24F2
:1012C00010E01032B0F48B3269F08C3228F48032A6
:1012D00051F0833271F40BC08D3239F0803349F410
:1012E000116028C01260146025C0186023C010610E
:1012F00021C017FD2AC0282F20532A3078F416FF6A
:1013000006C08D2D6AE019D2D82ED20E13C08E2DB4
:101310006AE013D2E82EE20E10620CC08E3221F485
:1013200016FD60C1106406C08C3611F4106802C04E
:10133000883659F4EC85FD8593FD859193FF819165
:10134000FD87EC87882309F0BCCF982F9554933004
:1013500018F09052933038F424E030E0A20EB31E1F
:101360003FE339830FC0833631F0833781F0833513
:1013700009F056C021C0F5018081898322E030E068
:10138000A20EB31E21E0C22ED12C420113C092E066
:10139000292E312C2A0C3B1CF5018080918016FFF0
:1013A00003C06D2D70E002C06FEF7FEFC4012ED13E
:1013B0006C0151011F7714C082E0282E312C2A0CB9
:1013C0003B1CF5018080918016FF03C06D2D70E0FD
:1013D00002C06FEF7FEFC4010ED16C0110685101A4
:1013E00013FD1AC005C080E290E0B3011AD1EA945F
:1013F0008E2D90E0C816D906B0F30EC0F40117FD8B
:10140000859117FF81914F0190E0B3010AD1E1105E
:10141000EA940894C108D108C114D10479F7DFC057
:10142000843611F0893649F5F50117FF07C0808130
:101430009181A281B38124E030E008C08081918154
:10144000AA2797FDA095BA2F22E030E0A20EB31E86
:10145000012F0F76B7FF08C0B095A09590958195A4
:101460009F4FAF4FBF4F0068BC01CD01A2012AE0E2
:1014700030E003D1F82EF4183EC0853721F41F7EEA
:101480002AE030E020C0197F8F36A9F0803720F4A1
:10149000883509F0A7C00BC0803721F0883709F0E4
:1014A000A1C001C0106114FF09C0146007C014FF7F
:1014B00008C0166006C028E030E005C020E130E03A
:1014C00002C020E132E0F50117FF07C060817181A1
:1014D0008281938144E050E006C06081718180E0A8
:1014E00090E042E050E0A40EB51EA201C6D0F82E56
:1014F000F418012F0F7706FF09C00E7FFD1430F49A
:1015000004FF06C002FD04C00F7E02C01F2D01C0F3
:101510001D2D802F90E004FF0CC0FE01EF0DF11D8A
:101520002081203311F4097E09C002FF06C01E5F2E
:1015300005C086789070009709F01F5F802E99246F
:1015400003FD11C000FF0CC0DF2C1E1548F4DE0C9B
:10155000D11A1E2D05C080E290E0B30162D01F5F5A
:101560001E15C8F304C01E1510F4E11A01C0EE24C4
:1015700084FE0EC080E390E0B30153D082FE1DC014
:1015800081FE03C088E590E010C088E790E00DC0C0
:10159000C40186789070009781F081FC02C080E2DF
:1015A00001C08BE207FD8DE290E0B3013AD005C0A7
:1015B00080E390E0B30135D0DA94FD14C8F3FA94D7
:1015C000F201EF0DF11D808190E0B3012AD0FF20E0
:1015D000B1F705C080E290E0B30123D0EA94EE2099
:1015E000C9F751CEF3018681978102C08FEF9FEF3B
:1015F0002D96E2E1C7C0FC010590615070400110DA
:10160000D8F7809590958E0F9F1F0895FC0161502B
:10161000704001900110D8F7809590958E0F9F1F14
:1016200008950F931F93CF93DF938C01EB018B8170
:1016300081FF1BC082FF0DC02E813F818C819D8167
:101640002817390764F4E881F9810193F983E88365
:1016500006C0E885F985802F0995009731F48E81C1
:101660009F8101969F838E8302C00FEF1FEFC801F9
:10167000DF91CF911F910F910895FA01AA27283089
:1016800061F1203191F1E8946F936E7F6E5F7F4F2F
:101690008F4F9F4FAF4FB1E040D0B4E03ED0670FC7
:1016A000781F891F9A1FA11D680F791F8A1F911D1E
:1016B000A11D6A0F711D811D911DA11D22D009F46C
:1016C00068943F91062E000C3019000C000C301964
:1016D000305D3193CEF6CF010895462F4770405DBF
:1016E0004193B3E00FD0C9F7F6CF462F4F70405D5E
:1016F0004A3318F0495D31FD4052419302D0A9F7B9
:10170000EACFB4E0A6959795879577956795BA95B2
:10171000C9F700976105710508959B01AC010A2E78
:1017200006945795479537952795BA95C9F7620F4F
:10173000731F841F951FA01D0895002480FD060EB1
:10174000660F11F08695D1F7802D08952F923F9264
:101750004F925F926F927F928F929F92AF92BF92C1
:10176000CF92DF92EF92FF920F931F93CF93DF936D
:10177000CDB7DEB7CA1BDB0B0FB6F894DEBF0FBECA
:10178000CDBF09942A88398848885F846E847D8417
:101790008C849B84AA84B984C884DF80EE80FD8019
:1017A0000C811B81AA81B981CE0FD11D0FB6F8948F
:0E17B000DEBF0FBECDBFED010895F894FFCF50
:1017BE00555342530000000000000000007000006E
:1017CE00000000000A000000000000000000000001
:1017DE008000021F0000004C5546410000000044EE
:1017EE00617461666C617368204469736B000030CC
:0417FE002E30300059
:00000001FF
