:1000000084C000009EC000009CC000009AC0000098
:1000100098C0000096C0000094C0000092C000008C
:1000200090C000008EC000008CC000000C944D08F1
:100030000C94F40886C0000084C0000082C0000058
:1000400080C000007EC000007CC000007AC00000BC
:1000500078C0000076C0000074C000002FC400000B
:1000600070C000006EC000006CC000006AC00000DC
:1000700068C000002E034C005500460041002000DF
:100080004D006100730073002000530074006F0086
:1000900072006100670065002000440065006D008B
:1000A0006F00000018034400650061006E0020002E
:1000B000430061006D0065007200610000000403F0
:1000C0000904090220000101008032090400000235
:1000D000080650000705830240000007050402409F
:1000E00000001201100100000008EB034520000091
:1000F0000102DC015720256C692025690D0A005298
:1001000020256C692025690D0A0011241FBECFEF40
:10011000D2E0DEBFCDBF11E0A0E0B1E0E0EFFAE158
:1001200002C005900D92A434B107D9F712E0A4E4FF
:10013000B1E001C01D92AC31B107E1F7D4D10C940C
:10014000760D5ECFCF92DF92EF92FF920F93CF9317
:10015000DF93CDB7DEB760970FB6F894DEBF0FBE62
:10016000CDBF002309F45AC029873A874B875C87A3
:100170006D877E878F87988B80E2801B4D855E859B
:100180006F8578891816B4F01D821E821F8218862A
:10019000992787FD9095909581959F4F04C07695FE
:1001A0006795579547958A95D2F749835A836B830C
:1001B0007C832CC06A017B01002E04C0F694E79476
:1001C000D794C7940A94D2F7CD82DE82EF82F88664
:1001D0006A017B0104C0CC0CDD1CEE1CFF1C8A955F
:1001E000D2F7D701C60149855A856B857C8504C045
:1001F00076956795579547950A95D2F7842B952B59
:10020000A62BB72B89839A83AB83BC8329813A8140
:100210004B815C816D817E818F81988560960FB660
:10022000F894DEBF0FBECDBFDF91CF910F91FF904D
:10023000EF90DF90CF9008959BB1809590638923D4
:100240008BB9089580914401089584B7877F84BF56
:1002500028E10FB6F89420936000109260000FBE62
:1002600090E080E80FB6F89480936100909361006D
:100270000FBE8AB180638AB98BB180638BB987E680
:1002800090E09093CD008093CC0086E08093CA00EC
:100290001092C8002093C900539A5A9A84D3F2C688
:1002A00080E2CADF10924401089580E0C5CF80E16A
:1002B000C3DF83E061E842E3EFD4882311F480E3F5
:1002C000BBDF84E060E842E3E7D4882311F480E3F5
:1002D000B3CF089580910F028E3F79F08F3FF1F4F4
:1002E00080910E028132D1F48091E800877F809363
:1002F000E80081E080934401F6C480910E02813AC7
:1003000069F48091E800877F8093E8001092F10003
:100310008091E8008E778093E800E5C408958EB35D
:10032000843009F0DFC08093E9008091E80082FF0B
:10033000AFC086E691E06FE070E042E251E069D53F
:1003400080914401882309F0A3C0809166019091B7
:100350006701A0916801B0916901853523E5920795
:1003600022E4A20723E4B20789F480917301882371
:1003700069F48091720190E08F719070009731F470
:1003800060917401662311F0613170F08091EB008F
:1003900080628093EB0083E08093E9008091EB0022
:1003A00080628093EB0074C085E791E070E042E2E8
:1003B00051E02FD580914401882309F069C08091D4
:1003C000E8008B778093E80080E036DF809172014F
:1003D00087FF03C083E08093E900D4D191E09827A0
:1003E00090930C0140916A0150916B0160916C01F6
:1003F00070916D01409304015093050160930601D3
:100400007093070140916E0150916F0160917001EE
:1004100070917101409308015093090160930A01A2
:1004200070930B01913051F441155105610571052F
:1004300029F08091EB0080628093EB0084E0809350
:10044000E90004C080914401882301F58091EB000C
:1004500085FDF8CF83E08093E90004C080914401DA
:100460008823A1F48091EB0085FDF8CF80E091E036
:100470006DE070E042E251E082D480914401882333
:1004800029F48091E8008E778093E80080E1D4DE43
:1004900080914401882331F180E18093EA00109239
:1004A000EA0088E08093EA001092EA0084E08093FA
:1004B000E9008091EB0080618093EB008091EB007C
:1004C00088608093EB0083E08093E9008091EB00EB
:1004D00080618093EB008091EB0088608093EB005B
:1004E000109244010895B1DE80E0A6DE789417DF13
:1004F0000E94970AFCCF923029F0933041F091305E
:10050000E9F417C080E290E0E2ECF0E01BC081303B
:1005100041F0813018F0823089F406C0EEEBF0E053
:1005200005C0E4EAF0E002C0E4E7F0E0849190E086
:1005300009C082E190E0E2EEF0E004C080E090E0EB
:10054000E0E0F0E0DA011196FC93EE930895AF92AB
:10055000BF92CF92DF92EF92FF920F931F93CF93B0
:10056000DF93CDB7DEB7ADB6BEB6DDB6CEB6009181
:100570007901109178018091760190E083709070FC
:10058000009721F480917701882361F080910F0119
:10059000807F856080930F0184E28093190110921F
:1005A0001A0139C078010532110518F084E2E82EED
:1005B000F12C8FE191E0B70142E251E0E0D3B801C4
:1005C0006E197F098DB79EB7861B970B0FB6F894EF
:1005D0009EBF0FBE8DBF019642E251E0D0D3809105
:1005E000E8008E778093E800A70160E070E08091DA
:1005F0006E0190916F01A0917001B0917101841B07
:10060000950BA60BB70B80936E0190936F01A0938F
:100610007001B0937101DDBECEBE0FB6F894BEBEC0
:100620000FBEADBEDF91CF911F910F91FF90EF9064
:10063000DF90CF90BF90AF900895EF92FF920F930D
:100640001F93CF93DF93CDB7DEB7EDB6FEB6009123
:100650007901102F033108F012E18DE091E0612F54
:1006600070E042E251E08BD3602F70E0611B7109B2
:100670008DB79EB7861B970B0FB6F8949EBF0FBE23
:100680008DBF019642E251E07AD38091E8008E77E7
:100690008093E80080916E0190916F01A0917001AC
:1006A000B0917101811B9109A109B10980936E017B
:1006B00090936F01A0937001B09371010FB6F894FD
:1006C000FEBE0FBEEDBEDF91CF911F910F91FF9047
:1006D000EF900895CF92DF92EF92FF921F93CF9306
:1006E000DF93182FC0907A01D0907901E0907801C3
:1006F000F090770180917D01C82F80917C01D82FE7
:1007000053D1AB01BC01C416D506E606F70660F06E
:1007100080910F01807F856080930F0181E280933B
:10072000190110921A0126C0C701B601AE011123AA
:1007300011F01DD201C07ED1AE0160E070E099E001
:10074000440F551F661F771F9A95D1F780916E0150
:1007500090916F01A0917001B0917101841B950B74
:10076000A60BB70B80936E0190936F01A09370015D
:10077000B0937101DF91CF911F91FF90EF90DF90C7
:10078000CF90089590910F01907F90930F01109258
:10079000190110921A01809175018E3109F475C00A
:1007A0008F3170F48330F1F0843020F4882309F421
:1007B0006CC074C08231A1F08D3109F06FC053C09C
:1007C000883209F45FC0893220F4853209F066C0AE
:1007D0000BC08A3209F454C08F3209F05FC055C093
:1007E000B6DE65C02ADF63C0DFD0DC01CB01019734
:1007F000A109B1094B2F5527662777274093F100B0
:10080000AD01662777274093F100492F5A2F6B2FB0
:1008100077274093F1008093F1001092F10010923D
:10082000F10082E08093F1001092F1008091440188
:100830008823E9F58091E8008E778093E800809125
:100840006E0190916F01A0917001B09171010897B4
:10085000A109B10980936E0190936F01A09370017B
:10086000B093710124C08091760182FD05C095602E
:1008700090930F0184E219C0946090930F0117C008
:1008800080E001C081E026DF12C010926E0110925C
:100890006F01109270011092710109C080910F01D7
:1008A000807F856080930F0180E280931901909191
:1008B0000F019F7081E009F080E008951F920F9270
:1008C0000FB60F9211242F938F939F93EF93FF9363
:1008D0008091CE009EB39430F9F4E0910502F0913E
:1008E00006028083E0910502F0910602CF01019695
:1008F000909306028093050222E08530920721F44E
:1009000085E891E0928381839FB7F89480910902F2
:100910008F5F809309029FBFFF91EF919F918F910D
:100920002F910F900FBE0F901F901895FC0109C0DA
:1009300081919091C80095FFFCCF8093CE006150CB
:10094000704016161706A4F30895DC019FB7F894BB
:10095000809109029FBF90E086179707BCF31DC0E6
:10096000E0910702F09108023191F0930802E093C0
:10097000070222E0E530F20721F490930802809309
:1009800007024FB7F89420910902215020930902E1
:100990004FBF3D936150704002C085E891E016164C
:1009A0001706F4F2089508950F931F9300914501DF
:1009B0001091460120914701309148010115110520
:1009C0002105310591F58091C80085FFFCCF83E0BA
:1009D0008093CE008091C80087FFFCCF8091CE002D
:1009E000843019F589E491E06DE170E0AEDF20918B
:1009F0005A0130915B0140915C0150915D01609121
:100A00005E0170915F01809160019091610109E048
:100A100099DB022F132F242F352F009345011093BC
:100A200046012093470130934801B801C9011F9145
:100A30000F910895EF92FF920F931F93CF93DF933F
:100A4000CDB7DEB727970FB6F894DEBF0FBECDBF88
:100A50006A837B838C839D839A015F834E83462FB9
:100A6000572F682F792F84EF90E073D55BD18823BF
:100A700009F070C08091C80085FFFCCF85E08093AD
:100A8000CE00CE01029664E070E050DF8091C80095
:100A900085FFFCCF86E08093CE00CE01069662E013
:100AA00070E044DF22E0E22E37E0F32E45C000E2A2
:100AB00010E08091C80085FFFCCFE092CE0080E17D
:100AC00090E02091F1003091C80035FFFCCF2093D9
:100AD000CE000197B1F7CE01019661E070E035DFFD
:100AE0008981843051F08BB18F7C8BB98091C800A3
:100AF00085FFFCCFF092CE0003C001501040C9F634
:100B000080914401882341F08091C80085FFFCCF8B
:100B100087E08093CE001EC08A819B81AC81BD811D
:100B20000196A11DB11D8A839B83AC83BD838E81F9
:100B30009F8101979F838E838E819F81009709F00B
:100B4000B6CF8091E80085FD05C08091E8008B77E5
:100B50008093E80027960FB6F894DEBF0FBECDBF96
:100B6000DF91CF911F910F91FF90EF900895EF9239
:100B7000FF920F931F93CF93DF93CDB7DEB76797A5
:100B80000FB6F894DEBF0FBECDBF6A8B7B8B8C8B0C
:100B90009D8B9A015F8B4E8B462F572F682F792F95
:100BA0008FEF90E0D6D4BED0882309F068C0809142
:100BB000C80085FFFCCF85E08093CE00CE01429631
:100BC00064E070E0B3DE8091C80085FFFCCF86E072
:100BD0008093CE00CE01469662E070E0A7DEFF244F
:100BE000F39447E0E42E3DC000E210E08091C8009D
:100BF00085FFFCCFF092CE00CE01019661E070E05F
:100C0000A4DE8981843051F08BB18F7C8BB98091C7
:100C1000C80085FFFCCFE092CE0013C0CE01029643
:100C200060E170E092DEFE01329680E090E021917A
:100C30002093F100019680319105C9F701501040D1
:100C4000A9F68A899B89AC89BD890196A11DB11D30
:100C50008A8B9B8BAC8BBD8B8E899F8901979F8BD9
:100C60008E8B8E899F89009709F0BECF8091E80016
:100C700085FD05C08091E8008E778093E800679637
:100C80000FB6F894DEBF0FBECDBFDF91CF911F919D
:100C90000F91FF90EF9008958093E900EBEEF0E064
:100CA000808181608083EDEEF0E010826093EC0043
:100CB00040838091EE00881F8827881F0895109236
:100CC000F40080E08093E9001092F0001092E800B8
:100CD0001092ED009091EB009E7F9093EB008F5F60
:100CE000853081F7089580910E0287FF11C003C0FF
:100CF0008EB38823B1F08091E80082FFF9CF809114
:100D0000E8008B778093E80008958EB3882349F03C
:100D10008091E80080FFF9CF8091E8008E77809382
:100D2000E800089585E69091EC0090FF05C0909151
:100D3000E80090FF05C01BC09091E80092FD17C02D
:100D40009EB39923B1F09EB39530A9F09091EB003A
:100D500095FD13C09091E10092FFE5CF9091E100E5
:100D60009B7F9093E1008150F1F684E0089580E04C
:100D7000089582E0089583E0089581E00895AF9298
:100D8000BF92CF92DF92EF92FF920F931F93CF9378
:100D9000DF930F92CDB7DEB7D82E5B017A0199832E
:100DA000C1DFC82E9981882339F50D2D192F1CC05C
:100DB0008091E80085FD10C08091E8008E778093D7
:100DC000E800E114F10421F0F7010995813081F088
:100DD000A9DF882349F00FC0F80181918F0180932A
:100DE000F1000894A108B108A114B10409F704C0E6
:100DF00035E0C32E01C0C82E8C2D0F90DF91CF910E
:100E00001F910F91FF90EF90DF90CF90BF90AF9028
:100E10000895AF92BF92CF92DF92EF92FF920F931D
:100E20001F93CF93DF930F92CDB7DEB7D82E5B0120
:100E30007A01998377DFC82E9981882339F50D2DA2
:100E4000192F1CC08091E80085FD10C08091E8003A
:100E50008B778093E800E114F10421F0F701099504
:100E6000813081F05FDF882349F00FC08091F1006D
:100E7000F80181938F010894A108B108A114B1046D
:100E800009F704C0F5E0CF2E01C0C82E8C2D0F90BD
:100E9000DF91CF911F910F91FF90EF90DF90CF9056
:100EA000BF90AF900895209114023091150226173B
:100EB000370720F4B901FC0190E032C061157105DB
:100EC000D1F72091E8002E772093E800F4CF8091AD
:100ED000E80083FD37C08091E80082FD2DC08EB30D
:100EE0008823A1F18EB3853079F18091E80080FFED
:100EF00017C08091F20006C091919093F10061506B
:100F000070408F5F6115710511F08830A8F391E092
:100F1000883009F090E08091E8008E778093E800B7
:100F200061157105A1F6992391F606C08EB3882349
:100F300069F08EB3853061F08091E80082FFF6CFD2
:100F400080E0089581E0089583E0089582E00895A7
:100F500083E0089520911402309115022617370777
:100F600020F4B9019C0190E035C061157105D1F7FD
:100F70002091E8002E772093E800F4CF8091E800DC
:100F800083FD3AC08091E80082FD30C08EB3882393
:100F9000B9F18EB3853091F18091E80080FF1AC0DD
:100FA0008091F20009C0F9012F5F3F4FE491E09377
:100FB000F100615070408F5F6115710511F088304C
:100FC00090F391E0883009F090E08091E8008E770E
:100FD0008093E8006115710589F6992379F606C0BA
:100FE0008EB3882369F08EB3853061F08091E8007C
:100FF00082FFF6CF80E0089581E0089583E00895B0
:1010000082E0089583E0089542D044D01EBA109241
:101010000C0210920B0210920A0284E089BD89B57D
:10102000826089BD09B400FEFDCF8091D800982F61
:101030009F779093D80080688093D8008091630058
:101040008E7F809363008091D8008F7D8093D8003D
:101050008091E0008E7F8093E0008091E1008E7FA0
:101060008093E1008091E20081608093E2008091B2
:10107000E100877F8093E1008091E20088608093A7
:10108000E2000895C1DF81E080930D02089510927F
:10109000E20008951092E10008951F920F920FB69A
:1010A0000F9211242F933F934F935F936F937F93EE
:1010B0008F939F93AF93BF93EF93FF938091E10042
:1010C00080FF1BC08091E20080FF17C08091E1008B
:1010D0008E7F8093E1008091E2008E7F8093E2001A
:1010E0008091E20080618093E2008091D80080626C
:1010F0008093D80019BC1EBAD8D88091E10084FF33
:1011000029C08091E20084FF25C084E089BD89B5B3
:10111000826089BD09B400FEFDCF8091D8008F7D2B
:101120008093D8008091E1008F7E8093E1008091D0
:10113000E2008F7E8093E2008091E20081608093E4
:10114000E20080910C02882311F084E001C081E06C
:101150008EBBA6D88091E10083FF27C08091E2007A
:1011600083FF23C08091E100877F8093E10082E0CC
:101170008EBB10920C028091E1008E7F8093E10083
:101180008091E2008E7F8093E2008091E200806196
:101190008093E20094DD80E060E042E07DDD8091BC
:1011A000F00088608093F000C1D18091E10082FF5F
:1011B0000AC08091E20082FF06C08091E1008B7F2F
:1011C0008093E100B3D1FF91EF91BF91AF919F91D7
:1011D0008F917F916F915F914F913F912F910F90E0
:1011E0000FBE0F901F9018951F920F920FB60F927F
:1011F0001124EF92FF920F931F932F933F934F93DE
:101200005F936F937F938F939F93AF93BF93EF936E
:10121000FF93CF93DF930F92CDB7DEB789EEE82E21
:10122000F12CF70180818770108200EF10E0F80147
:101230009081977F90837894898322D0F894F701E6
:101240001082F8019081986090838981F7018083F2
:101250000F90DF91CF91FF91EF91BF91AF919F914F
:101260008F917F916F915F914F913F912F911F913E
:101270000F91FF90EF900F900FBE0F901F90189559
:101280001F93CF93DF93CDB7DEB7AC970FB6F8942B
:10129000DEBF0FBECDBF80E0EEE0F2E09091F10046
:1012A00091938F5F8830D1F780910E0220910F02C9
:1012B000253009F484C0263040F42130A1F12130DA
:1012C00070F0233009F018C12EC0283009F4E9C0AD
:1012D000293009F4F8C0263009F00EC18EC08038DC
:1012E00021F0823809F008C108C080910A0290916B
:1012F0000B02992371F082600CC0809112028770FA
:101300008093E9009091EB0081E095FF80E01092DE
:10131000E9009091E800977F9093E8008093F100B6
:101320001092F100C9C0882319F0823009F0E4C09E
:1013300090E08F719070009729F08230910509F04C
:10134000DDC00BC080911002813009F0D7C023307E
:1013500009F080E080930B022CC08091100288235A
:1013600041F520911202277009F4C8C02093E900CA
:101370008091EB0080FFC2C080910F02833021F486
:101380008091EB00806213C08091EB0080618093BC
:10139000EB0081E090E002C0880F991F2A95E2F7E8
:1013A0008093EA001092EA008091EB0088608093BD
:1013B000EB001092E9008091E800877F80C08823CD
:1013C00009F09AC0109110028091E800877F809305
:1013D000E80089DC04C08EB3882309F48FC08091B3
:1013E000E80080FFF8CF1F7711F083E001C082E0B2
:1013F0008EBB10681093E30081C08058823008F0E3
:101400007BC0809110029091110223E08C3D9207E5
:1014100089F583E08C838AE28B833FB7F894DE0101
:10142000159680E090E02EE041E2E22FF0E040935C
:101430005700E49180FF03C0E295EF702F5FEF70DB
:101440005E2F505D5A3308F0595F5C9311961C92E1
:101450001197129601968431910539F73FBF80911B
:10146000E800877F8093E800CE0103966AE270E08F
:101470001ADD11C060911202AE014F5F5F4F3BD881
:10148000BC010097D9F18091E800877F8093E80044
:1014900089819A815FDD8091E8008B778093E800F5
:1014A0002DC0803849F58091E800877F8093E8005F
:1014B00080910C028093F1008091E8008E778093F8
:1014C000E80011DC1BC08823B9F49091100292301F
:1014D000A8F48091E800877F8093E80090930C0245
:1014E00002DC80910C02882311F084E001C083E0CB
:1014F0008EBB0E94570102C00E946A018091E800E1
:1015000083FF0AC08091EB0080628093EB008091A2
:10151000E800877F8093E800AC960FB6F894DEBFB2
:101520000FBECDBFDF91CF911F9108950895CF9346
:101530008EB3882361F0C091E900C7701092E90072
:101540008091E80083FF01C09BDEC093E900CF914A
:101550000895A0E0B0E0EEEAFAE0A1C2FE013596FF
:10156000619171918091180290911902DC0113969A
:101570002C911397286013962C93AF010AD0E09119
:101580001802F09119022381277F23832096E2E03D
:10159000A2C2ADE0B0E0EEECFAE071C23C017D87A2
:1015A0006C875A01FC0117821682838181FFB7C1C3
:1015B0002E010894411C511CF3019381EC85FD859B
:1015C00093FD859193FF8191FD87EC87882309F432
:1015D000A2C1853241F493FD859193FF8191FD87EE
:1015E000EC87853221F490E0B301B4D1E5CFDD245E
:1015F000EE2410E01032B0F48B3269F08C3228F413
:10160000803251F0833271F40BC08D3239F0803367
:1016100049F4116028C01260146025C0186023C00E
:10162000106121C017FD2AC0282F20532A3078F4DA
:1016300016FF06C08D2D6AE019D2D82ED20E13C027
:101640008E2D6AE013D2E82EE20E10620CC08E32AC
:1016500021F416FD60C1106406C08C3611F41068C8
:1016600002C0883659F4EC85FD8593FD859193FF82
:101670008191FD87EC87882309F0BCCF982F955482
:10168000933018F09052933038F424E030E0A20EFA
:10169000B31E3FE339830FC0833631F0833781F0C7
:1016A000833509F056C021C0F5018081898322E08D
:1016B00030E0A20EB31E21E0C22ED12C420113C095
:1016C00092E0292E312C2A0C3B1CF5018080918060
:1016D00016FF03C06D2D70E002C06FEF7FEFC401F5
:1016E0002ED16C0151011F7714C082E0282E312CBD
:1016F0002A0C3B1CF5018080918016FF03C06D2DE4
:1017000070E002C06FEF7FEFC4010ED16C01106872
:10171000510113FD1AC005C080E290E0B3011AD157
:10172000EA948E2D90E0C816D906B0F30EC0F401ED
:1017300017FD859117FF81914F0190E0B3010AD108
:10174000E110EA940894C108D108C114D10479F7D2
:10175000DFC0843611F0893649F5F50117FF07C05F
:1017600080819181A281B38124E030E008C0808132
:101770009181AA2797FDA095BA2F22E030E0A20E12
:10178000B31E012F0F76B7FF08C0B095A0959095B6
:1017900081959F4FAF4FBF4F0068BC01CD01A201A3
:1017A0002AE030E003D1F82EF4183EC0853721F44A
:1017B0001F7E2AE030E020C0197F8F36A9F08037E5
:1017C00020F4883509F0A7C00BC0803721F0883796
:1017D00009F0A1C001C0106114FF09C0146007C066
:1017E00014FF08C0166006C028E030E005C020E104
:1017F00030E002C020E132E0F50117FF07C0608150
:1018000071818281938144E050E006C060817181E2
:1018100080E090E042E050E0A40EB51EA201C6D0E8
:10182000F82EF418012F0F7706FF09C00E7FFD1464
:1018300030F404FF06C002FD04C00F7E02C01F2D5D
:1018400001C01D2D802F90E004FF0CC0FE01EF0DA4
:10185000F11D2081203311F4097E09C002FF06C06A
:101860001E5F05C086789070009709F01F5F802E7C
:10187000992403FD11C000FF0CC0DF2C1E1548F495
:10188000DE0CD11A1E2D05C080E290E0B30162D0BB
:101890001F5F1E15C8F304C01E1510F4E11A01C025
:1018A000EE2484FE0EC080E390E0B30153D082FEAC
:1018B0001DC081FE03C088E590E010C088E790E07D
:1018C0000DC0C40186789070009781F081FC02C041
:1018D00080E201C08BE207FD8DE290E0B3013AD0D7
:1018E00005C080E390E0B30135D0DA94FD14C8F36D
:1018F000FA94F201EF0DF11D808190E0B3012AD03E
:10190000FF20B1F705C080E290E0B30123D0EA9454
:10191000EE20C9F751CEF3018681978102C08FEF87
:101920009FEF2D96E2E1C7C0FC0105906150704029
:101930000110D8F7809590958E0F9F1F0895FC0198
:101940006150704001900110D8F7809590958E0FEE
:101950009F1F08950F931F93CF93DF938C01EB018B
:101960008B8181FF1BC082FF0DC02E813F818C8146
:101970009D812817390764F4E881F9810193F9837F
:10198000E88306C0E885F985802F0995009731F432
:101990008E819F8101969F838E8302C00FEF1FEF80
:1019A000C801DF91CF911F910F910895FA01AA27E5
:1019B000283061F1203191F1E8946F936E7F6E5F72
:1019C0007F4F8F4F9F4FAF4FB1E040D0B4E03ED03C
:1019D000670F781F891F9A1FA11D680F791F8A1F23
:1019E000911DA11D6A0F711D811D911DA11D22D088
:1019F00009F468943F91062E000C3019000C000C7D
:101A00003019305D3193CEF6CF010895462F4770DF
:101A1000405D4193B3E00FD0C9F7F6CF462F4F702A
:101A2000405D4A3318F0495D31FD4052419302D088
:101A3000A9F7EACFB4E0A69597958795779567952E
:101A4000BA95C9F700976105710508959B01AC012E
:101A50000A2E06945795479537952795BA95C9F755
:101A6000620F731F841F951FA01D0895002480FD21
:101A7000060E660F11F08695D1F7802D08952F92EE
:101A80003F924F925F926F927F928F929F92AF920E
:101A9000BF92CF92DF92EF92FF920F931F93CF935B
:101AA000DF93CDB7DEB7CA1BDB0B0FB6F894DEBFF2
:101AB0000FBECDBF09942A88398848885F846E8418
:101AC0007D848C849B84AA84B984C884DF80EE8062
:101AD000FD800C811B81AA81B981CE0FD11D0FB66B
:101AE000F894DEBF0FBECDBFED010895F894FFCF8F
:101AF0005553425300000000000000000070000039
:101B0000000000000A0000000000000000000000CB
:101B10008000021F0000004C5546410000000044B8
:101B2000617461666C617368204469736B00003096
:041B30002E30300023
:00000001FF
