:10000000BEC00000D8C00000D6C00000D4C00000B0
:10001000D2C00000D0C00000CEC00000CCC00000A4
:10002000CAC00000C8C000000C9411110C94D21179
:10003000C2C00000C0C00000BEC00000BCC00000C4
:10004000BAC00000B8C00000B6C00000B4C00000D4
:10005000B2C00000B0C00000AEC00000ACC00000E4
:10006000AAC00000A8C00000A6C00000A4C00000F4
:10007000A2C00000A0C000009EC000009CC0000004
:100080009AC0000098C0000096C0000094C0000014
:1000900092C0000090C000008EC000008CC0000024
:1000A0008AC0000088C0000086C000002E034C00FB
:1000B00055004600410020004D00610073007300B0
:1000C0002000530074006F0072006100670065003B
:1000D0002000440065006D006F000000180344001C
:1000E000650061006E002000430061006D00650046
:1000F00072006100000004030904090220000101EC
:10010000008032090400000208065000070583023F
:100110004000000705040240000012011001000029
:100120000008EB0345200000010200014D4D432F64
:10013000534420696E697469616C697A6174696F8E
:100140006E206661696C65640D0A004572726F729B
:100150002072656164696E67205344206361726434
:1001600020696E666F0D0A005720256C692025698D
:100170000D0A005220256C692025690D0A00112402
:100180001FBECFEFDAE0DEBFCDBF11E0A0E0B1E0EF
:10019000ECE5FCE202C005900D92A434B107D9F75A
:1001A00013E0A4E4B1E001C01D92A13BB107E1F767
:1001B00064D20C942C1624CFCF92DF92EF92FF9250
:1001C0000F93CF93DF93CDB7DEB760970FB6F89458
:1001D000DEBF0FBECDBF002309F45AC029873A877E
:1001E0004B875C876D877E878F87988B80E2801B2B
:1001F0004D855E856F8578891816B4F01D821E8244
:100200001F821886992787FD9095909581959F4F1D
:1002100004C076956795579547958A95D2F7498397
:100220005A836B837C832CC06A017B01002E04C03F
:10023000F694E794D794C7940A94D2F7CD82DE82DD
:10024000EF82F8866A017B0104C0CC0CDD1CEE1C39
:10025000FF1C8A95D2F7D701C60149855A856B855F
:100260007C8504C076956795579547950A95D2F792
:10027000842B952BA62BB72B89839A83AB83BC83C6
:1002800029813A814B815C816D817E818F81988546
:1002900060960FB6F894DEBF0FBECDBFDF91CF9151
:1002A0000F91FF90EF90DF90CF900895CF92DF9263
:1002B000EF92FF920F93CF93DF93CDB7DEB76097A6
:1002C0000FB6F894DEBF0FBECDBF002309F45AC0AD
:1002D00029873A874B875C876D877E878F87988BC6
:1002E00080E2801B49855A856B857C851816B4F0A1
:1002F00019821A821B821C82992787FD90959095FE
:1003000081959F4F04C0440F551F661F771F8A9524
:10031000D2F74D835E836F8378872CC06A017B019F
:10032000002E04C0CC0CDD1CEE1CFF1C0A94D2F77E
:10033000C982DA82EB82FC826A017B0104C0F694F6
:10034000E794D794C7948A95D2F7D701C6014D8513
:100350005E856F85788904C0440F551F661F771F1F
:100360000A95D2F7842B952BA62BB72B8D839E83D2
:10037000AF83B88729813A814B815C816D817E8111
:100380008F81988560960FB6F894DEBF0FBECDBF03
:10039000DF91CF910F91FF90EF90DF90CF90089574
:1003A00025B1982F917090952160922395B92BB12A
:1003B000982F90729095206292239BB998B1807883
:1003C0009F77892B88B9089580914401089584B757
:1003D000877F84BF28E10FB6F894209360001092C5
:1003E00060000FBE90E080E80FB6F8948093610043
:1003F000909361000FBE209A289A559A5D9A3F9A71
:10040000479887E690E09093CD008093CC0086E0FB
:100410008093CA001092C8002093C900539A5A9A38
:1004200083D40C94FA1081E0BBDF1092440108954C
:1004300080E0B6CF80E2B4DF83E061E842E30E946F
:10044000470F882311F481EAABDF84E060E842E3E0
:100450000E94470F882311F481EAA2CF089580916A
:10046000A4038E3F81F08F3F01F58091A303813279
:10047000E1F48091E800877F8093E80081E0809339
:1004800044010C946E0F8091A303813A71F4809122
:10049000E800877F8093E8001092F1008091E800E7
:1004A0008E778093E8000C946E0F08958EB384309D
:1004B00009F0E2C08093E9008091E80082FFB2C0B9
:1004C00080E893E06FE070E044EE51E00E94041099
:1004D00080914401882309F0A5C080918003909108
:1004E0008103A0918203B0918303853523E59207B0
:1004F00022E4A20723E4B20789F480918D038823C4
:1005000069F480918C0390E08F719070009731F4C2
:1005100060918E03662311F0613170F08091EB00E1
:1005200080628093EB0083E08093E9008091EB0090
:1005300080628093EB0076C08FE893E070E044EE39
:1005400051E00E94041080914401882309F06AC0A0
:100550008091E8008B778093E80080E821DF80912C
:100560008C0387FF03C083E08093E9009BD291E076
:10057000982790930C0140918403509185036091DA
:1005800086037091870340930401509305016093A3
:10059000060170930701409188035091890360918F
:1005A0008A0370918B034093080150930901609373
:1005B0000A0170930B01913051F441155105610509
:1005C000710529F08091EB0080628093EB0084E05C
:1005D0008093E90004C080914401882309F580914B
:1005E000EB0085FDF8CF83E08093E90004C08091A3
:1005F00044018823A9F48091EB0085FDF8CF80E0C9
:1006000091E06DE070E044EE51E00E94BA0F8091FD
:100610004401882329F48091E8008E778093E800D4
:1006200080E2BEDE80914401882331F180E1809335
:10063000EA001092EA0088E08093EA001092EA0053
:1006400084E08093E9008091EB0080618093EB006F
:100650008091EB0088608093EB0083E08093E90059
:100660008091EB0080618093EB008091EB008860CB
:100670008093EB00109244010895A9DE80E090DEA3
:10068000789414DF0E943713FCCF382F292FCB0129
:10069000632F722F0C945613CF93DF93CDB7DEB731
:1006A000C05CD0400FB6F894DEBF0FBECDBFE09166
:1006B0008E03F0E0DE01AF59BF4FE159FC4F80E2FD
:1006C00001900D928150E1F781E690E08C0F9D1F23
:1006D00080966BEA70E040E250E00E945F13CE012A
:1006E0008F559F4F6AEB70E040E250E00E945F132D
:1006F000CE018F599F4FBE016F5F7F4F40E650E0A4
:10070000C4DF8AEA8093F100FE01EF59FF4F80E0D9
:1007100090E021912093F100019680349105C9F772
:10072000FE01319680E090E021912093F100019646
:1007300080369105C9F7C054DF4F0FB6F894DEBF7D
:100740000FBECDBFDF91CF910895CF93DF93CDB78B
:10075000DEB7C058D0400FB6F894DEBF0FBECDBF95
:100760008FE893E0BE016F5D7F4F40E650E08DDF84
:10077000CE0181966FEE73E040E650E00E9449138F
:10078000009709F58FE893E0BE016F5F7F4F40E26D
:1007900050E07BDF8CEC8093F100EFE8F3E080E049
:1007A00090E021912093F100019680329105C9F7E4
:1007B000FE01319680E090E021912093F1000196B6
:1007C00080329105C9F7C058DF4F0FB6F894DEBFED
:1007D0000FBECDBFDF91CF910895923029F09330B5
:1007E00041F09130E9F417C080E290E0EAEFF0E0E8
:1007F0001BC0813041F0813018F0823089F406C08E
:10080000E6EFF0E005C0ECEDF0E002C0ECEAF0E06D
:10081000849190E009C082E190E0EAE1F1E004C057
:1008200080E090E0E0E0F0E0DA011196FC93EE93D6
:100830000895AF92BF92CF92DF92EF92FF920F9303
:100840001F93CF93DF93CDB7DEB7ADB6BEB6DDB69F
:10085000CEB620919203009193038091900390E093
:1008600083709070009721F480919103882361F048
:1008700080910F01807F856080930F0184E28093D7
:10088000190110921A0140C0922F80E010E0082B4D
:10089000192B78010532110518F084E2E82EF12CAD
:1008A0008FE191E0B70144EE51E00E94BA0FB80128
:1008B0006E197F098DB79EB7861B970B0FB6F894FC
:1008C0009EBF0FBE8DBF019644EE51E00E94BA0F4D
:1008D0008091E8008E778093E800A70160E070E0E7
:1008E0008091880390918903A0918A03B0918B0332
:1008F000841B950BA60BB70B8093880390938903F9
:10090000A0938A03B0938B03DDBECEBE0FB6F894DE
:10091000BEBE0FBEADBEDF91CF911F910F91FF9074
:10092000EF90DF90CF90BF90AF900895EF92FF923D
:100930000F931F93CF93DF93CDB7DEB7EDB6FEB61F
:1009400000919303102F033108F012E18DE091E044
:10095000612F70E044EE51E00E94BA0F602F70E00A
:10096000611B71098DB79EB7861B970B0FB6F89464
:100970009EBF0FBE8DBF019644EE51E00E94BA0F9C
:100980008091E8008E778093E800809188039091B1
:100990008903A0918A03B0918B03811B9109A1095E
:1009A000B1098093880390938903A0938A03B0933D
:1009B0008B030FB6F894FEBE0FBEEDBEDF91CF9154
:1009C0001F910F91FF90EF900895CF92DF92EF92D9
:1009D000FF921F93CF93DF9300D000D000D0CDB70C
:1009E000DEB7182F809191038E83809192038D83BF
:1009F000809193038C83809194038B8380919603E1
:100A00008A83809197038983CB80DC80ED80FE8090
:100A100094D1DC01CB01C816D906EA06FB0660F0CA
:100A200080910F01807F856080930F0181E2809328
:100A3000190110921A0128C049815A81C701B601D3
:100A4000112311F03CD201C0BAD149815A8160E032
:100A500070E099E0440F551F661F771F9A95D1F7F4
:100A60008091880390918903A0918A03B0918B03B0
:100A7000841B950BA60BB70B809388039093890377
:100A8000A0938A03B0938B0326960FB6F894DEBF2B
:100A90000FBECDBFDF91CF911F91FF90EF90DF9000
:100AA000CF90089590910F01907F90930F01109235
:100AB000190110921A0180918F03853259F1863203
:100AC00090F4823119F1833138F4882309F47EC01F
:100AD000833009F088C01CC08D3109F45BC08E31B1
:100AE00009F081C073C08F3209F470C0803338F4CC
:100AF000883209F468C08A3209F075C062C08A3A47
:100B000009F46DC08C3C09F06EC06BC092DE74C0FD
:100B10000DDF72C012D1DC01CB010197A109B1092F
:100B20004B2F5527662777274093F100AD016627A5
:100B300077274093F100492F5A2F6B2F7727409347
:100B4000F1008093F1001092F1001092F10082E028
:100B50008093F1001092F10080914401882309F004
:100B60004BC08091E8008E778093E80080918803E5
:100B700090918903A0918A03B0918B030897A109F2
:100B8000B1098093880390938903A0938A03B0935B
:100B90008B0332C08091900382FD05C095609093D5
:100BA0000F0184E227C00ED2882381F480910F01C7
:100BB000807F846080930F011092190110921A01B6
:100BC0001BC080E001C081E000DF16C010928803E6
:100BD0001092890310928A0310928B030DC05CDD82
:100BE0000BC0B3DD09C080910F01807F85608093C9
:100BF0000F0180E28093190190910F019F7081E0B5
:100C000009F080E00895CF93DF93EC018091E80034
:100C100085FD09C08091E8008E778093E8000E94EE
:100C20008D0F8823A9F588818093F10089818093B5
:100C3000F1008A818093F1008B818093F1008C8197
:100C40008093F1008D818093F1008E818093F1007B
:100C50008F818093F10088858093F100898580934E
:100C6000F1008A858093F1008B858093F1008C855B
:100C70008093F1008D858093F1008E858093F10043
:100C80008F858093F1008091440191E0892701C014
:100C900080E0DF91CF910895CF93DF93EC018091B5
:100CA000E80085FD09C08091E8008B778093E8001B
:100CB0000E948D0F882399F58091F100888380919F
:100CC000F10089838091F1008A838091F1008B8308
:100CD0008091F1008C838091F1008D838091F100EF
:100CE0008E838091F1008F838091F10088878091BD
:100CF000F10089878091F1008A878091F1008B87CC
:100D00008091F1008C878091F1008D878091F100B6
:100D10008E878091F1008F8780E190E002C080E0B3
:100D200090E0DF91CF91089504C08CE291E00E94A1
:100D3000661310D48823C9F30895CF92DF92EF92FF
:100D4000FF920F93C0904501D0904601E09047017B
:100D5000F0904801C114D104E104F10441F589E4A3
:100D600091E033D7882329F48BE491E00E94661345
:100D70001EC020915A0130915B0140915C0150915D
:100D80005D0160915E0170915F01809160019091C1
:100D9000610109E011DAC22ED32EE42EF52EC092A5
:100DA0004501D0924601E0924701F0924801B60118
:100DB000C7010F91FF90EF90DF90CF9008954F9271
:100DC0005F926F927F928F929F92AF92BF92CF92DB
:100DD000DF92EF92FF920F931F93CF93DF9300D098
:100DE00000D0CDB7DEB76B017C014A0188E691E007
:100DF000B701A60194010E9466130E948D0F8823FB
:100E000009F048C0442455243201A7019601A9E005
:100E1000220F331F441F551FAA95D1F729833A8308
:100E20004B835C832BC089819A81AB81BC81840D0B
:100E3000951DA61DB71D5C016D019C01A60160E01A
:100E400070E080E090E006E611E0E12CE2E0FE2EAA
:100E5000FCE4CF2EF6E0DF2EAA24BB24FAD5809145
:100E6000440120E032E040E050E0420E531E641E98
:100E7000751E882379F408948108910881149104DF
:100E800091F68091E80085FD05C08091E8008B77A0
:100E90008093E8000F900F900F900F90DF91CF910B
:100EA0001F910F91FF90EF90DF90CF90BF90AF9088
:100EB0009F908F907F906F905F904F9008952F92AA
:100EC0003F924F925F926F927F928F929F92AF92DA
:100ED000BF92CF92DF92EF92FF920F931F93CF9327
:100EE000DF9300D000D0CDB7DEB76B017C011A01D3
:100EF00083E791E0B701A60191010E9466130E9469
:100F00008D0F882309F047C0442455243201D701AE
:100F1000C601F9E0880F991FAA1FBB1FFA95D1F7E8
:100F200089839A83AB83BC832AC089819A81AB81F0
:100F3000BC81840D951DA61DB71D4C015D019C0152
:100F4000A50160E070E080E090E006E611E0E0E1FD
:100F5000EE2EF12CC12CF2E0DF2EE3E0AE2EE6E027
:100F6000BE2E882499243BD208942108310880E0C1
:100F700092E0A0E0B0E0480E591E6A1E7B1E2114CC
:100F8000310499F68091E80085FD05C08091E80064
:100F90008E778093E8000F900F900F900F90DF9165
:100FA000CF911F910F91FF90EF90DF90CF90BF9066
:100FB000AF909F908F907F906F905F904F903F90F9
:100FC0002F90089581E0089525B1982F9170909504
:100FD0002160922395B92BB1982F90729095206241
:100FE00092239BB998B180789F77892B88B908950F
:100FF0008EBD0DB407FEFDCF8DB58F778DBD0895E5
:101000008FEF8EBD0DB407FEFDCF8DB58F778DBDF3
:101010008EB508951F93CF93DF9300D000D0CDB746
:10102000DEB7182F4C835B836A837983E9DF812FD6
:101030008064DEDF7981872FDBDF6A81862FD8DF4E
:101040005B81852FD5DF4C81842FD2DF112319F0EE
:10105000183039F404C085E9CBDF1AE004C087E812
:10106000FBCF8FEFF9CFCCDF8F3F11F41150D9F7C1
:101070000F900F900F900F90DF91CF911F910895D7
:1010800081E0089580E00895EF92FF920F931F93FF
:1010900080917F018823E1F42091770130917801DC
:1010A0004091790150917A0160917B0170917C01AE
:1010B00080917D0190917E0100E811E0E12CE2E059
:1010C000FE2E1AD3882331F081E080937F0103C084
:1010D00081E001C080E01F910F91FF90EF90089593
:1010E0002F923F924F925F926F927F928F929F9238
:1010F000AF92BF92CF92DF92EF92FF920F931F9326
:10110000CF93DF93CDB7DEB72C970FB6F894DEBF41
:101110000FBECDBF29833A834B835C836D837E836F
:101120008F8398872801FA86E98638C189819A8158
:1011300091709C878B875C019980981A21E0998136
:10114000991508F020E09A819B1981E0EA81E9175E
:1011500008F080E0D92ED21A21E09D1508F020E099
:10116000822B9B81892E881A81E0981508F080E0F7
:101170009C81192F181B81E0911708F080E09D8158
:10118000C92EC81A81E09C1508F080E09E81B92E16
:10119000B81A81E09B1508F080E09F81A92EA81A5B
:1011A00081E09A1508F080E06884681AE12CA2E0DA
:1011B000FA2E8B859C85E81AF90AE985FA85EE15E1
:1011C000FF0508F47F01809177018915E9F480918A
:1011D00078018D15C9F4809179018815A9F4809161
:1011E0007A01811789F480917B018C1569F48091D3
:1011F0007C018B1549F480917D018A1529F4809139
:101200007E01861509F451C03FDF882309F4CDC063
:101210002E988091760182FF0FC0292D3D2D482DFB
:10122000512F6C2D7B2D8A2D962D09E00E94DC001C
:10123000BA01422F532F04C0492D5D2D682D712F07
:1012400081E1E8DE882311F02E9AAFC0D9DE8E3F0F
:10125000E9F7F0E82F2EF1E03F2ED2DEF101819385
:101260001F01F0E82F16F3E03F06B9F790927701DF
:10127000D09278018092790110937A01C0927B011B
:10128000B0927C01A0927D0160927E016B857C858D
:1012900060587E4FC201A7010E9456134E0C5F1C7E
:1012A000AFDEAEDE2E9AACDE0AC06B857C85605860
:1012B0007E4FC201A7010E9456134E0C5F1C898508
:1012C0009A858E199F099A878987370188249924DE
:1012D000AA24BB24650109810E0D11E0998109172B
:1012E00008F010E02A81270D71E0EA812E1708F03E
:1012F00070E0120F31E0121708F030E0732B2B81F1
:10130000280D61E0FB812F1708F060E0720F31E0DB
:10131000721708F030E0632B2C81290D31E08C81AD
:10132000281708F030E0620F41E0621708F040E053
:10133000342B4D814A0D21E09D81491708F020E0B2
:10134000F32EF40E31E0F41608F030E0232B4E813A
:101350004B0D31E0EE814E1708F030E0522F540F64
:1013600021E0541708F020E0322B4F814C0D21E092
:10137000FF814F1708F020E0340FEE24E394341778
:1013800008F0EE242E2988858D0D09831A837B832E
:101390006C83FD825E833F83280F288789859A8529
:1013A000009709F0C3CE81E001C080E02C960FB613
:1013B000F894DEBF0FBECDBFDF91CF911F910F918B
:1013C000FF90EF90DF90CF90BF90AF909F908F9065
:1013D0007F906F905F904F903F902F9008952F9245
:1013E0003F924F925F926F927F928F929F92AF92B5
:1013F000BF92CF92DF92EF92FF920F931F93CF9302
:10140000DF93CDB7DEB72E970FB6F894DEBF0FBED1
:10141000CDBF290149835A836B83272E382E9C83A5
:101420001E830D8337010115110509F477C0E114FE
:10143000F10409F473C0CE14DF0408F46FC0A114E2
:10144000B10409F46BC0970140E050E060E070E047
:10145000CB01EF82388749875A876B877C878D87D6
:101460009E87920149815A816B81722D832D9C81C7
:101470000D811E81730134DE882309F44FC08D81F4
:101480009E81820129813A814B81522D632D7C817D
:101490007401F5010995882309F442C06F81640D38
:1014A00021E0641508F020E09885950D81E0951500
:1014B00008F080E0522E590E21E0591608F020E085
:1014C000822B3981830F51E0831708F050E04A8165
:1014D000540F41E07A81571708F040E09B81490F93
:1014E00031E0491708F030E0320D21E0321508F004
:1014F00020E0230D91E0231508F090E0462E89832B
:101500005A834B83232E322E2C81290F2C83C6180D
:10151000D708C614D70408F0A4CF02C080E001C0E9
:1015200081E02E960FB6F894DEBF0FBECDBFDF91DF
:10153000CF911F910F91FF90EF90DF90CF90BF90D0
:10154000AF909F908F907F906F905F904F903F9063
:101550002F900895CF92DF92EF92FF920F931F93F7
:10156000CF93DF93229A219A269A23982E9A83E585
:101570008CBD8DB58E7F8DBD1092760181DD882367
:1015800009F4AFC0CAE03CDDC150E9F72E98C0E0D5
:10159000D2E080E040E050E0BA013CDD813019F05B
:1015A0002197B9F75FC088E04AEA51E060E070E057
:1015B00031DD82FD15C024DD23DD22DD80FD02C08A
:1015C00081E004C01DDD8A3A19F081E8FDDC89C0A4
:1015D00080917601826080937601C0E0D0E810C0EF
:1015E00087E340E050E0BA0115DD89E240E050E0D9
:1015F000BA0110DD82FDF1CF809176018160EBCFE1
:101600008091760190E09C012370307021153105A6
:10161000A1F081FD04C0CC24DD24760105C0C12CDD
:10162000D12CE12C10E4F12E87E340E050E0BA0128
:10163000F1DC89E2B701A60104C081E040E050E09E
:10164000BA01E8DC80FF03C02197D1F60BC0C0913E
:101650007601C1FF12C08AE340E050E0BA01DADC53
:10166000882311F02E9A3DC0CBDC86FF03C0C460F6
:10167000C0937601C5DCC4DCC3DC80E140E052E00D
:1016800060E070E0C7DC2E9A882359F58CB58C7F1A
:101690008CBD8DB581608DBD8FEF80937701809378
:1016A00078018093790180937A0180937B01809304
:1016B0007C0180937D0180937E0181E080937F0196
:1016C00020E030E040E050E060E070E080E090E05A
:1016D00000E811E0E12CB2E0FB2E02DD91E088236E
:1016E00009F490E0892FDF91CF911F910F91FF9026
:1016F000EF90DF90CF9008952F923F924F925F929C
:101700006F927F928F929F92AF92BF92CF92DF9211
:10171000EF92FF920F931F93CF93DF93CDB7DEB776
:101720002C970FB6F894DEBF0FBECDBF19012A016A
:101730003B014C011E830D83FC82EB82A3DC8823DA
:1017400009F465C16AC1910131703987288789011F
:10175000822D821B8B8781E09B85291608F080E013
:10176000232D211B91E0321608F090E0D22ED81ADA
:1017700081E02D1508F080E0982BC42CC91A81E077
:101780004C1408F080E0B52CB81A81E05B1408F026
:1017900080E0A62CA81A81E06A1408F080E0E72D0A
:1017A000E81BEC8781E07E1608F080E0F82DF81B3E
:1017B000FF8381E08F1608F080E0292D281B2A87FF
:1017C00080E092E0E885F9858E1B9F0B9A838983E0
:1017D0002B813C812817390710F43A8329838091A3
:1017E00077013B858317F9F4809178018D15D9F441
:1017F000809179018C15B9F480917A018B1599F457
:1018000080917B018A1579F480917C019C858917F0
:1018100051F480917D01EF818E1729F480917E0132
:10182000FA858F17A1F130DC882309F4F6C02885EA
:1018300039852115310531F489819A81E2E08030C2
:101840009E0789F02B853D2D4C2D5B2D6A2D7C85C7
:101850008F819A8500E811E0E12CE2E0FE2E40DC69
:10186000882309F4DAC0FB85F0937701D0927801E0
:10187000C0927901B0927A01A0927B012C852093CD
:101880007C013F8130937D018A8580937E01ED81CB
:10189000FE8121E0E038F20799F08885998580582B
:1018A0009E4F6D817E8149815A8100D710927F01C0
:1018B0008B819C81E981FA818E179F0709F4AFC063
:1018C0002E988091760182FF0FC02B853D2D4C2DE7
:1018D0005B2D6A2D7C858F819A8509E00E94DC0052
:1018E000BA01422F532F04C04B855D2D6C2D7B2DEB
:1018F00088E190DB882311F02E9A8FC08EEF78DB81
:1019000000E811E0F80181918F0172DBF3E000380B
:101910001F07C1F78FEF6CDB8FEF6ADB71DB8F3F47
:10192000E9F76EDB2E9A2D813E8189819A81280FFD
:10193000391F3E832D835C01CC24DD24EE24FF245B
:101940008701722D780F61E0721508F060E0832D39
:101950008B0D51E0831508F050E0680F91E0681797
:1019600008F090E0592B842D8C0D41E0841508F08F
:1019700040E0580F91E0581708F090E0492B852D72
:101980008D0D91E0851508F090E0480F21E0481793
:1019900008F020E0922B262D2E0D81E0261508F070
:1019A00080E0E92FE20F91E0E21708F090E0892B48
:1019B000272D2F0D91E0271508F090E0382F320FDA
:1019C00081E0321708F080E0982B282D200F81E06D
:1019D000281508F080E0920FF1E0921708F0F0E08F
:1019E0008F2B292D210F272E362E452E542E6E2E6D
:1019F000732E892E982E920EEB81FC8129813A81DB
:101A0000E21BF30BFC83EB8331E030937F018B818E
:101A10009C81009709F097CE02C080E001C081E070
:101A20002C960FB6F894DEBF0FBECDBFDF91CF91DD
:101A30001F910F91FF90EF90DF90CF90BF90AF90EC
:101A40009F908F907F906F905F904F903F902F90DE
:101A500008952F923F924F925F926F927F928F9252
:101A60009F92AF92BF92CF92DF92EF92FF920F932D
:101A70001F93CF93DF93CDB7DEB727970FB6F894B8
:101A8000DEBF0FBECDBF542E652E762E872E982E2C
:101A9000492E1A8309831701DC82CB82BE82AD8274
:101AA0000115110509F477C0C114D10409F473C0FC
:101AB000BB24B394E114F10409F462C0BB2460C0F8
:101AC00089819A810F811A2D252D362D472D582D6C
:101AD000692D742DED80FE80EB81FC8109956C01F0
:101AE000009709F456C0BB2021F42816390608F4E3
:101AF00052C02F813A2D452D562D672D782D892DD9
:101B0000942D09811A817601F7DD882309F443C0F9
:101B100086018F818C0D91E0FF818F1708F090E096
:101B20003A2D310F21E03A1508F020E0A92EA30E3E
:101B300091E0A31608F090E0292B250D71E0251502
:101B400008F070E0760D61E0761508F060E0670D52
:101B500051E0671508F050E0580D41E0581508F0C5
:101B600040E0490D31E0491508F030E08F83522EF6
:101B7000672E762E852E942E430E2C183D0802C01B
:101B80002F83A32EBB2009F09BCF2114310409F031
:101B900097CF81E001C080E027960FB6F894DEBFB2
:101BA0000FBECDBFDF91CF911F910F91FF90EF90AE
:101BB000DF90CF90BF90AF909F908F907F906F906D
:101BC0005F904F903F902F9008952F923F924F92A9
:101BD0005F926F927F928F929F92AF92BF92CF92BD
:101BE000DF92EF92FF920F931F93CF93DF93CDB7C6
:101BF000DEB72A970FB6F894DEBF0FBECDBF7C01CB
:101C0000009709F42AC13CDA882309F426C18DE142
:101C1000F70111928A95E9F72E988AE040E050E0AA
:101C2000BA01F8D9882309F060C0EAD98E3FE9F7F4
:101C3000CE2C570100E610E09A2D9C199983E0D92B
:101C40009981983028F4933090F4992359F00CC07E
:101C50009D3018F4993088F40DC09D3039F19E30D4
:101C600099F529C0F70101C0F50180832DC0F50168
:101C700081832AC0F701828727C090E0A0E0B0E00E
:101C8000002E04C0880F991FAA1FBB1F0A94D2F709
:101C9000F7014385548565857685482B592B6A2B3A
:101CA0007B2B43875487658776870EC08295807F1C
:101CB000F701878709C0282F22952F70F701978594
:101CC000922B97878F70808B0894A11CB11C0850B1
:101CD0001040FFEF003D1F0709F0AECF89E040E064
:101CE00050E0BA0197D9882311F02E9AB6C088D94E
:101CF0008E3FE9F710E0CC24DD24BB241A86AA2409
:101D0000A3947ED91E30B1F490E086FF02C0F701A3
:101D1000A18E85FF02C0F701A28E84FF02C0F701E9
:101D2000A38E8C7090709595879595958795F70102
:101D3000848F8CC09091760191FF28C0173029F0D4
:101D4000173050F01A3040F401C08F733C2D222719
:101D5000C82EDD24C22AD32A193009F077C008948E
:101D6000C11CD11C960140E050E060E070E080E0D2
:101D700090E003E10E945601F701218B328B438BE7
:101D8000548B658B768B878B908F60C01730D9F022
:101D9000183030F4153061F0163009F057C00BC020
:101DA000193021F11930B8F01A3009F04FC023C0B2
:101DB0008F708A874BC0C82EDD24F3E0CF22DD244C
:101DC000DC2CCC2443C090E0C82AD92ACC0CDD1CE2
:101DD000CC0CDD1C3BC0829586958695837090E087
:101DE000C82AD92A0894C11CD11C30C0F3E0BF2EE8
:101DF000B822BB0C2BC0881F8827881FB82AC601B1
:101E0000A0E0B0E02A84222D30E02B0D311D2E5FA2
:101E10003F4F04C0880F991FAA1FBB1F2A95D2F7F6
:101E20001C012D016624772443018A833B824C8266
:101E30005D826E827F8288869986F701818B328AE5
:101E4000438A548A158A168A178A108E1F5F1231A8
:101E500009F057CF2E9A81E001C080E02A960FB694
:101E6000F894DEBF0FBECDBFDF91CF911F910F91D0
:101E7000FF90EF90DF90CF90BF90AF909F908F90AA
:101E80007F906F905F904F903F902F900895809338
:101E9000E900EBEEF0E0808181608083EDEEF0E020
:101EA00010826093EC0040838091EE00881F8827A9
:101EB000881F08951092F40080E08093E90010924A
:101EC000F0001092E8001092ED009091EB009E7FE0
:101ED0009093EB008F5F873081F708958091A30383
:101EE00087FF11C003C08EB38823B1F08091E80052
:101EF00082FFF9CF8091E8008B778093E800089506
:101F00008EB3882349F08091E80080FFF9CF80915B
:101F1000E8008E778093E800089585E69091EC00C4
:101F200090FF05C09091E80090FF05C01BC0909104
:101F3000E80092FD17C09EB39923B1F09EB395308F
:101F4000A9F09091EB0095FD13C09091E10092FFF4
:101F5000E5CF9091E1009B7F9093E1008150F1F6F5
:101F600084E0089580E0089582E0089583E0089574
:101F700081E00895AF92BF92CF92DF92EF92FF92ED
:101F80000F931F93CF93DF930F92CDB7DEB7D82E69
:101F90005B017A019983C1DFC82E9981882339F5C5
:101FA0000D2D192F1CC08091E80085FD10C0809177
:101FB000E8008E778093E800E114F10421F0F70146
:101FC0000995813081F0A9DF882349F00FC0F8011D
:101FD00081918F018093F1000894A108B108A114A8
:101FE000B10409F704C035E0C32E01C0C82E8C2D02
:101FF0000F90DF91CF911F910F91FF90EF90DF90A5
:10200000CF90BF90AF900895AF92BF92CF92DF92E2
:10201000EF92FF920F931F93CF93DF930F92CDB761
:10202000DEB7D82E5B017A01998377DFC82E9981BC
:10203000882339F50D2D192F1CC08091E80085FDEE
:1020400010C08091E8008B778093E800E114F104E0
:1020500021F0F7010995813081F05FDF882349F095
:102060000FC08091F100F80181938F010894A108BD
:10207000B108A114B10409F704C0F5E0CF2E01C0E6
:10208000C82E8C2D0F90DF91CF911F910F91FF9053
:10209000EF90DF90CF90BF90AF9008952091A9036B
:1020A0003091AA032617370720F4B9019C0180E07C
:1020B0003DC061157105D1F72091E8002E7720937E
:1020C000E800F4CF9091E80093FD42C09091E800C1
:1020D00092FD38C09EB3992309F43EC09EB395305B
:1020E000C9F19091E80090FF21C08091F3004091E8
:1020F000F200406080E090E009C0F9012F5F3F4F9F
:10210000E491E093F100615070400196542F580F14
:102110006115710511F0583080F381E0583009F0F5
:1021200080E09091E8009E779093E800611571053A
:1021300049F6882339F606C08EB3882369F08EB33A
:10214000853061F08091E80082FFF6CF80E008954D
:1021500081E0089583E0089582E0089583E0089582
:1021600053D05AD01EBA1092A1031092A00310921D
:102170009F038AE482BF80E189BD89B5826089BD01
:1021800009B400FEFDCF8091D800982F9F779093DF
:10219000D80080688093D8008091D70081608093B8
:1021A000D7008091D8008F7D8093D8008091E00087
:1021B0008B7F8093E0008091E0008E7F8093E00031
:1021C0008091E1008E7F8093E1008091E200816048
:1021D0008093E2008091E100877F8093E10080910D
:1021E000E20088608093E2008091D8008160809353
:1021F000D8000895B5DFE8EDF0E08081806180834C
:1022000081E08093A2030895E8EDF0E080818E7F65
:1022100080831092E20008951092DA001092E1009B
:1022200008951F920F920FB60F9211242F933F9390
:102230004F935F936F937F938F939F93AF93BF93CE
:10224000EF93FF938091DA0080FF15C08091D80052
:1022500080FF11C08091DA008E7F8093DA00809138
:10226000D90080FF05C081E08EBB0E94130203C02D
:102270001EBA0E9418028091E10080FF1CC080916C
:10228000E20080FF18C08091E1008E7F8093E10022
:102290008091E2008E7F8093E2008091E200806175
:1022A0008093E2008091D80080628093D80019BCAE
:1022B00085E08EBBDBD18091E10084FF29C0809155
:1022C000E20084FF25C080E189BD89B5826089BDB7
:1022D00009B400FEFDCF8091D8008F7D8093D80097
:1022E0008091E1008F7E8093E1008091E2008F7EFB
:1022F0008093E2008091E20081608093E20080910F
:10230000A103882311F084E001C083E08EBBAED12D
:102310008091E10083FF27C08091E20083FF23C00A
:102320008091E100877F8093E10082E08EBB109274
:10233000A1038091E1008E7F8093E1008091E20013
:102340008E7F8093E2008091E20080618093E200C2
:10235000B1DD80E060E042E09ADD8091F0008860CD
:102360008093F00083D18091E10082FF0AC08091C8
:10237000E20082FF06C08091E1008B7F8093E10044
:1023800075D1FF91EF91BF91AF919F918F917F9107
:102390006F915F914F913F912F910F900FBE0F90D2
:1023A0001F9018951F920F920FB60F921124EF9263
:1023B000FF920F931F932F933F934F935F936F93CE
:1023C0007F938F939F93AF93BF93EF93FF93CF939D
:1023D000DF930F92CDB7DEB789EEE82EF12CF7012F
:1023E00080818770108200EF10E0F8019081977F64
:1023F00090837894898322D0F894F7011082F801B1
:102400009081986090838981F70180830F90DF919C
:10241000CF91FF91EF91BF91AF919F918F917F915C
:102420006F915F914F913F912F911F910F91FF906D
:10243000EF900F900FBE0F901F9018951F93CF93A2
:10244000DF9300D0CDB7DEB788E0E3EAF3E0909108
:10245000F10091938150D9F78091A3032091A403B7
:10246000253009F484C0263040F42130A1F1213018
:1024700070F0233009F0E4C02EC0283009F4B5C054
:10248000293009F4C4C0263009F0DAC08EC0803883
:1024900021F0823809F0D4C008C080919F03909148
:1024A000A003992371F082600CC08091A70387700C
:1024B0008093E9009091EB0081E095FF80E010921D
:1024C000E9009091E800977F9093E8008093F100F5
:1024D0001092F10095C0882319F0823009F0B0C045
:1024E00090E08F719070009729F08230910509F08B
:1024F000A9C00BC08091A503813009F0A3C023308F
:1025000009F080E08093A0032CC08091A50388236C
:1025100041F52091A703277009F494C02093E900A6
:102520008091EB0080FF8EC08091A403833021F462
:102530008091EB00806213C08091EB0080618093FA
:10254000EB0081E090E002C0880F991F2A95E2F726
:102550008093EA001092EA008091EB0088608093FB
:10256000EB001092E9008091E800877F4CC088233F
:1025700009F066C01091A5038091E800877F8093E1
:10258000E800ACDC04C08EB3882309F45BC0809102
:10259000E80080FFF8CF1F7711F083E001C082E0F0
:1025A0008EBB10681093E3004DC08058823008F055
:1025B00047C08091A5039091A6036091A703AE0147
:1025C0004F5F5F4F0E94ED03BC010097D9F18091EE
:1025D000E800877F8093E80089819A815FDD8091A0
:1025E000E8008B778093E8002DC0803849F5809112
:1025F000E800877F8093E8008091A1038093F10039
:102600008091E8008E778093E80068DC1BC0882307
:10261000B9F49091A5039230A8F48091E800877FE7
:102620008093E8009093A10359DC8091A103882353
:1026300011F084E001C083E08EBB0E941A0202C048
:102640000E942F028091E80083FF0AC08091EB0076
:1026500080628093EB008091E800877F8093E800A0
:102660000F900F90DF91CF911F9108950895CF9310
:102670008EB3882361F0C091E900C7701092E90021
:102680008091E80083FF01C0D9DEC093E900CF91BB
:102690000895FB01DC0104C08D910190801921F4A3
:1026A00041505040C8F7881B990B0895FB01DC018D
:1026B00002C001900D9241505040D8F70895DC01BE
:1026C00001C06D9341505040E0F70895A0E0B0E0A4
:1026D000EBE6F3E19AC2FE0135966191719180912A
:1026E000AD039091AE03DC0113962C9113972860F3
:1026F00013962C93AF010AD0E091AD03F091AE0395
:102700002381277F23832096E2E09BC2ADE0B0E0E7
:10271000EBE8F3E16AC23C017D876C875A01FC015A
:1027200017821682838181FFBBC12E010894411C50
:10273000511CF3019381EC85FD8593FD859193FFF9
:102740008191FD87EC87882309F4A6C1853241F485
:1027500093FD859193FF8191FD87EC87853221F46C
:1027600090E0B301B8D1E5CFFF24EE2410E01032A1
:10277000B0F48B3269F08C3228F4803251F083321D
:1027800071F40BC08D3239F0803349F411602CC0E4
:102790001260146029C0186027C0106125C017FDA1
:1027A0002EC0282F20532A3098F416FF08C08F2DF2
:1027B000880FF82EFF0CFF0CF80EF20E15C08E2DB0
:1027C000880FE82EEE0CEE0CE80EE20E10620CC044
:1027D0008E3221F416FD60C1106406C08C3611F4EF
:1027E000106802C0883659F4EC85FD8593FD85910B
:1027F00093FF8191FD87EC87882309F0B8CF982F4C
:102800009554933018F09052933038F424E030E02F
:10281000A20EB31E3FE339830FC0833631F08337F6
:1028200081F0833509F056C021C0F501808189838C
:1028300022E030E0A20EB31E21E0C22ED12C4201D4
:1028400013C092E0292E312C2A0C3B1CF50180800C
:10285000918016FF03C06F2D70E002C06FEF7FEF15
:10286000C4012ED16C0151011F7714C082E0282EC3
:10287000312C2A0C3B1CF5018080918016FF03C08F
:102880006F2D70E002C06FEF7FEFC4010ED16C01BD
:102890001068510113FD1AC005C080E290E0B30139
:1028A0001AD1EA948E2D90E0C816D906B0F30EC066
:1028B000F40117FD859117FF81914F0190E0B3015D
:1028C0000AD1E110EA940894C108D108C114D104D6
:1028D00079F7DFC0843611F0893649F5F50117FF25
:1028E00007C080819181A281B38124E030E008C0DB
:1028F00080819181AA2797FDA095BA2F22E030E030
:10290000A20EB31E012F0F76B7FF08C0B095A09599
:10291000909581959F4FAF4FBF4F0068BC01CD018F
:10292000A2012AE030E003D1D82ED4183EC085376A
:1029300021F41F7E2AE030E020C0197F8F36A9F0F5
:10294000803720F4883509F0A7C00BC0803721F00C
:10295000883709F0A1C001C0106114FF09C01460DC
:1029600007C014FF08C0166006C028E030E005C0AC
:1029700020E130E002C020E132E0F50117FF07C09E
:10298000608171818281938144E050E006C0608162
:10299000718180E090E042E050E0A40EB51EA201FB
:1029A000C6D0D82ED418012F0F7706FF09C00E7F8E
:1029B000DF1430F404FF06C002FD04C00F7E02C025
:1029C0001D2D01C01F2D802F90E004FF0CC0FE01C3
:1029D000ED0DF11D2081203311F4097E09C002FFA5
:1029E00006C01E5F05C086789070009709F01F5FD3
:1029F000802E992403FD11C000FF0CC0FD2C1E1574
:102A000048F4FE0CF11A1E2D05C080E290E0B301DF
:102A100062D01F5F1E15C8F304C01E1510F4E11A22
:102A200001C0EE2484FE0EC080E390E0B30153D0D9
:102A300082FE1DC081FE03C088E590E010C088E7DB
:102A400090E00DC0C40186789070009781F081FC01
:102A500002C080E201C08BE207FD8DE290E0B3018D
:102A60003AD005C080E390E0B30135D0FA94DF148A
:102A7000C8F3DA94F201ED0DF11D808190E0B3010D
:102A80002AD0DD20B1F705C080E290E0B30123D069
:102A9000EA94EE20C9F74DCEF3018681978102C0FA
:102AA0008FEF9FEF2D96E2E1BCC0FC0105906150D5
:102AB00070400110D8F7809590958E0F9F1F089554
:102AC000FC016150704001900110D8F780959095FD
:102AD0008E0F9F1F08950F931F93CF93DF938C0149
:102AE000EB018B8181FF1BC082FF0DC02E813F81D6
:102AF0008C819D812817390764F4E881F98101935D
:102B0000F983E88306C0E885F985802F0995009749
:102B100031F48E819F8101969F838E8302C00FEFD7
:102B20001FEFC801DF91CF911F910F910895FA0116
:102B3000AA27283051F1203181F1E8946F936E7FFC
:102B40006E5F7F4F8F4F9F4FAF4FB1E03ED0B4E0ED
:102B50003CD0670F781F891F9A1FA11D680F791F2E
:102B60008A1F911DA11D6A0F711D811D911DA11D3F
:102B700020D009F468943F912AE0269F112430194F
:102B8000305D3193DEF6CF010895462F4770405DEA
:102B90004193B3E00FD0C9F7F6CF462F4F70405D99
:102BA0004A3318F0495D31FD4052419302D0A9F7F4
:102BB000EACFB4E0A6959795879577956795BA95EE
:102BC000C9F700976105710508959B01AC010A2EB4
:102BD00006945795479537952795BA95C9F7620F8B
:102BE000731F841F951FA01D08952F923F924F922F
:102BF0005F926F927F928F929F92AF92BF92CF928D
:102C0000DF92EF92FF920F931F93CF93DF93CDB795
:102C1000DEB7CA1BDB0B0FB6F894DEBF0FBECDBF0D
:102C200009942A88398848885F846E847D848C84DE
:102C30009B84AA84B984C884DF80EE80FD800C81E7
:102C40001B81AA81B981CE0FD11D0FB6F894DEBFCA
:0C2C50000FBECDBFED010895F894FFCF3A
:102C5C0055534253000000000000000000700000BB
:102C6C00000000000A00000000000000000000004E
:102C7C008000021F0000004C55464100000000443B
:102C8C00617461666C617368204469736B00003019
:042C9C002E303000A6
:00000001FF
