:1000000079C0000092C0000090C000008EC00000C7
:100010008CC000008AC0000088C0000086C00000BC
:1000200084C0000082C0000080C0000083C50000C2
:1000300028C600007AC0000078C0000076C000002A
:1000400074C0000072C0000070C000006EC00000EC
:100050006CC000006AC0000068C0000066C00000FC
:1000600064C0000062C0000060C000005EC000000C
:100070005CC000002E034C005500460041002000EB
:100080004D006100730073002000530074006F0086
:1000900072006100670065002000440065006D008B
:1000A0006F00000018034400650061006E0020002E
:1000B000430061006D0065007200610000000403F0
:1000C0000904090220000101008032090400000235
:1000D000080650000705830240000007050402409F
:1000E00000001201100100000008EB034520000091
:1000F0000102DC0111241FBECFEFD2E0DEBFCDBF75
:1001000011E0A0E0B1E0ECEEFFE002C005900D923E
:10011000A434B107D9F711E0A4E4B1E001C01D9205
:10012000A037B107E1F754D15FC76ACF9BB1809583
:10013000906389238BB9089580914401089584B711
:10014000877F84BF88E10FB6F89480936000109297
:1001500060000FBE90E080E80FB6F89480936100D5
:10016000909361000FBE8AB180638AB98BB18063BE
:100170008BB984B1866084B985B1896085B98CE515
:100180008CBD8DB581608DBDCAC480E1CFDF10927A
:100190004401089580E2CACF80E1C8DF83E061E8CE
:1001A00042E3C7D2882311F480E2C0DF84E060E834
:1001B00042E3BFD2882311F480E2B8CF0895809142
:1001C00069018E3F79F08F3FF1F4809168018132AF
:1001D000D1F48091E800877F8093E80081E08093EC
:1001E0004401CEC280916801813A69F48091E800AF
:1001F000877F8093E8001092F1008091E8008E776D
:100200008093E800BDC208958EB3843009F0DFC04A
:100210008093E9008091E80082FFAFC085E491E01F
:100220006FE070E04CE950E041D3809144018823B5
:1002300009F0A3C08091450190914601A09147012A
:10024000B0914801853523E5920722E4A20723E413
:10025000B20789F480915201882369F48091510199
:1002600090E08F719070009731F460915301662394
:1002700011F0613170F08091EB0080628093EB00AF
:1002800083E08093E9008091EB0080628093EB0033
:1002900074C084E591E070E04CE950E007D38091B0
:1002A0004401882309F069C08091E8008B7780932E
:1002B000E80080E13BDF8091510187FF03C083E0CC
:1002C0008093E900AED191E0982790930C01409182
:1002D000490150914A0160914B0170914C0140934A
:1002E000040150930501609306017093070140914A
:1002F0004D0150914E0160914F017091500140931A
:1003000008015093090160930A0170930B01913029
:1003100051F4411551056105710529F08091EB00FB
:1003200080628093EB0084E08093E90004C08091B8
:100330004401882301F58091EB0085FDF8CF83E02F
:100340008093E90004C0809144018823A1F4809146
:10035000EB0085FDF8CF80E091E06DE070E04CE9C6
:1003600050E05AD280914401882329F48091E8001A
:100370008E778093E80080E1D9DE80914401882364
:1003800031F180E18093EA001092EA0088E08093E6
:10039000EA001092EA0084E08093E9008091EB008B
:1003A00080618093EB008091EB0088608093EB008C
:1003B00083E08093E9008091EB0080618093EB0003
:1003C0008091EB0088608093EB00109244010895C7
:1003D000B6DE80E2ABDE789417DFF4D5FDCF923045
:1003E00029F0933041F09130E9F417C080E290E0B9
:1003F000E2ECF0E01BC0813041F0813018F0823037
:1004000089F406C0EEEBF0E005C0E4EAF0E002C0DB
:10041000E4E7F0E0849190E009C082E190E0E2EE50
:10042000F0E004C080E090E0E0E0F0E0DA01119656
:10043000FC93EE930895AF92BF92CF92DF92EF922A
:10044000FF920F931F93CF93DF93CDB7DEB7ADB677
:10045000BEB6DDB6CEB6009158011091570180911D
:10046000550190E083709070009721F480915601BF
:10047000882361F080910F01807F856080930F0158
:1004800084E28093190110921A0139C07801053273
:10049000110518F084E2E82EF12C8FE191E0B7010C
:1004A0004CE950E0B9D1B8016E197F098DB79EB7FC
:1004B000861B970B0FB6F8949EBF0FBE8DBF01969B
:1004C0004CE950E0A9D18091E8008E778093E80054
:1004D000A70160E070E080914D0190914E01A091E4
:1004E0004F01B0915001841B950BA60BB70B809365
:1004F0004D0190934E01A0934F01B0935001DDBE8A
:10050000CEBE0FB6F894BEBE0FBEADBEDF91CF918A
:100510001F910F91FF90EF90DF90CF90BF90AF9021
:100520000895EF92FF920F931F93CF93DF93CDB770
:10053000DEB7EDB6FEB600915801102F033108F07A
:1005400012E18DE091E0612F70E04CE950E064D160
:10055000602F70E0611B71098DB79EB7861B970BEA
:100560000FB6F8949EBF0FBE8DBF01964CE950E0C8
:1005700053D18091E8008E778093E80080914D01FF
:1005800090914E01A0914F01B0915001811B9109B2
:10059000A109B10980934D0190934E01A0934F01A1
:1005A000B09350010FB6F894FEBE0FBEEDBEDF91C2
:1005B000CF911F910F91FF90EF9008958091590175
:1005C00090915801A0915701B091560140915C0162
:1005D00050915B010097A105B10561F080910F0179
:1005E000807F856080930F0181E2809319011092D2
:1005F0001A01089560E070E080914D0190914E01E4
:10060000A0914F01B0915001841B950BA60BB70B25
:1006100080934D0190934E01A0934F01B0935001F0
:10062000089590910F01907F90930F0110921901FE
:1006300010921A01809154018E3109F461C08F31FA
:1006400070F48330F1F0843020F4882309F458C02A
:1006500060C08231A1F08D3109F05BC042C08832A8
:1006600009F44CC0893220F4853209F052C00BC025
:100670008A3209F443C08F3209F04BC041C0DBDE3F
:1006800051C04FDF4FC01092F1001092F100109254
:10069000F1001092F1001092F1001092F10010920E
:1006A000F10081E08093F100809144018823D1F52D
:1006B0008091E8008E778093E80080914D019091C1
:1006C0004E01A0914F01B09150010897A109B109C5
:1006D00080934D0190934E01A0934F01B093500130
:1006E00021C08091550182FD05C0956090930F0156
:1006F00084E216C0946090930F0114C05FDF12C0B3
:1007000010924D0110924E0110924F011092500123
:1007100009C080910F01807F856080930F0180E286
:100720008093190190910F019F7081E009F080E0A2
:1007300008958093E900EBEEF0E080818160808392
:10074000EDEEF0E010826093EC0040838091EE00CB
:10075000881F8827881F08951092F40080E08093F6
:10076000E9001092F0001092E8001092ED009091D4
:10077000EB009E7F9093EB008F5F853081F70895AB
:100780008091680187FF11C003C08EB38823B1F048
:100790008091E80082FFF9CF8091E8008B77809309
:1007A000E80008958EB3882349F08091E80080FF27
:1007B000F9CF8091E8008E778093E800089585E670
:1007C0009091EC0090FF05C09091E80090FF05C06B
:1007D0001BC09091E80092FD17C09EB39923B1F021
:1007E0009EB39530A9F09091EB0095FD13C09091C8
:1007F000E10092FFE5CF9091E1009B7F9093E100B3
:100800008150F1F684E0089580E0089582E0089533
:1008100083E0089581E00895AF92BF92CF92DF9276
:10082000EF92FF920F931F93CF93DF930F92CDB769
:10083000DEB7D82E5B017A019983C1DFC82E99817A
:10084000882339F50D2D192F1CC08091E80085FDF6
:1008500010C08091E8008E778093E800E114F104E5
:1008600021F0F7010995813081F0A9DF882349F053
:100870000FC0F80181918F018093F1000894A108C5
:10088000B108A114B10409F704C035E0C32E01C0BA
:10089000C82E8C2D0F90DF91CF911F910F91FF905B
:1008A000EF90DF90CF90BF90AF900895AF92BF923E
:1008B000CF92DF92EF92FF920F931F93CF93DF932C
:1008C0000F92CDB7DEB7D82E5B017A01998377DF1F
:1008D000C82E9981882339F50D2D192F1CC08091C0
:1008E000E80085FD10C08091E8008B778093E800D8
:1008F000E114F10421F0F7010995813081F05FDF07
:10090000882349F00FC08091F100F80181938F0195
:100910000894A108B108A114B10409F704C0F5E0D6
:10092000CF2E01C0C82E8C2D0F90DF91CF911F913B
:100930000F91FF90EF90DF90CF90BF90AF90089510
:1009400020916E0130916F012617370720F4B9010D
:10095000FC0190E032C061157105D1F72091E800EB
:100960002E772093E800F4CF8091E80083FD37C014
:100970008091E80082FD2DC08EB38823A1F18EB353
:10098000853079F18091E80080FF17C08091F200F6
:1009900006C091919093F100615070408F5F611596
:1009A000710511F08830A8F391E0883009F090E0EB
:1009B0008091E8008E778093E80061157105A1F6BB
:1009C000992391F606C08EB3882369F08EB38530E3
:1009D00061F08091E80082FFF6CF80E0089581E029
:1009E000089583E0089582E0089583E008952091BA
:1009F0006E0130916F012617370720F4B9019C0171
:100A000090E035C061157105D1F72091E8002E778F
:100A10002093E800F4CF8091E80083FD3AC08091F4
:100A2000E80082FD30C08EB38823B9F18EB38530E3
:100A300091F18091E80080FF1AC08091F20009C016
:100A4000F9012F5F3F4FE491E093F1006150704056
:100A50008F5F6115710511F0883090F391E0883057
:100A600009F090E08091E8008E778093E8006115AE
:100A7000710589F6992379F606C08EB3882369F04B
:100A80008EB3853061F08091E80082FFF6CF80E080
:100A9000089581E0089583E0089582E0089583E059
:100AA000089542D044D01EBA10926601109265019A
:100AB0001092640184E089BD89B5826089BD09B462
:100AC00000FEFDCF8091D800982F9F779093D8009B
:100AD00080688093D800809163008E7F809363004C
:100AE0008091D8008F7D8093D8008091E0008E7F28
:100AF0008093E0008091E1008E7F8093E1008091FF
:100B0000E20081608093E2008091E100877F809322
:100B1000E1008091E20088608093E2000895C1DFE7
:100B200081E08093670108951092E2000895109289
:100B3000E10008951F920F920FB60F9211242F9388
:100B40003F934F935F936F937F938F939F93AF9355
:100B5000BF93EF93FF938091E10080FF1BC08091D2
:100B6000E20080FF17C08091E1008E7F8093E1005A
:100B70008091E2008E7F8093E2008091E2008061AC
:100B80008093E2008091D80080628093D80019BCE5
:100B90001EBA00DB8091E10084FF29C08091E20051
:100BA00084FF25C084E089BD89B5826089BD09B410
:100BB00000FEFDCF8091D8008F7D8093D80080917A
:100BC000E1008F7E8093E1008091E2008F7E809330
:100BD000E2008091E20081608093E20080916601F2
:100BE000882311F084E001C081E08EBBCEDA8091D1
:100BF000E10083FF27C08091E20083FF23C0809142
:100C0000E100877F8093E10082E08EBB1092660155
:100C10008091E1008E7F8093E1008091E2008E7FE1
:100C20008093E2008091E20080618093E20094DD95
:100C300080E060E042E07DDD8091F000886080939C
:100C4000F000BFD18091E10082FF0AC08091E200F4
:100C500082FF06C08091E1008B7F8093E100B1D1DB
:100C6000FF91EF91BF91AF919F918F917F916F9184
:100C70005F914F913F912F910F900FBE0F901F905A
:100C800018951F920F920FB60F921124EF92FF92B8
:100C90000F931F932F933F934F935F936F937F9384
:100CA0008F939F93AF93BF93EF93FF93CF93DF9374
:100CB0000F92CDB7DEB789EEE82EF12CF7018081D7
:100CC0008770108200EF10E0F8019081977F908389
:100CD0007894898322D0F894F7011082F8019081EA
:100CE000986090838981F70180830F90DF91CF9185
:100CF000FF91EF91BF91AF919F918F917F916F91F4
:100D00005F914F913F912F911F910F91FF90EF9025
:100D10000F900FBE0F901F9018951F93CF93DF93E6
:100D2000CDB7DEB7AC970FB6F894DEBF0FBECDBF20
:100D300080E0E8E6F1E09091F10091938F5F8830D8
:100D4000D1F78091680120916901253009F484C0B0
:100D5000263040F42130A1F1213070F0233009F029
:100D600017C12EC0283009F4E9C0293009F4F8C0B1
:100D7000263009F00DC18EC0803821F0823809F08C
:100D800007C108C08091640190916501992371F0B9
:100D900082600CC080916C0187708093E900909113
:100DA000EB0081E095FF80E01092E9009091E8006F
:100DB000977F9093E8008093F1001092F100C9C0F2
:100DC000882319F0823009F0E3C090E08F719070B1
:100DD000009729F08230910509F0DBC00BC08091AB
:100DE0006A01813009F0D5C0233009F080E080939A
:100DF00065012CC080916A01882341F520916C0126
:100E0000277009F4C6C02093E9008091EB0080FFB1
:100E1000C0C080916901833021F48091EB00806231
:100E200013C08091EB0080618093EB0081E090E043
:100E300002C0880F991F2A95E2F78093EA0010926A
:100E4000EA008091EB0088608093EB001092E9004B
:100E50008091E800877F80C0882309F099C01091B5
:100E60006A018091E800877F8093E80089DC04C0F4
:100E70008EB3882309F48DC08091E80080FFF8CFFD
:100E80001F7711F083E001C082E08EBB10681093E1
:100E9000E3007FC08058823008F07AC080916A01F8
:100EA00090916B0123E08C3D920789F583E08C8360
:100EB0008AE28B833FB7F894DE01159680E090E0DC
:100EC0002EE041E2E22FF0E040935700E49180FFF2
:100ED00003C0E295EF702F5FEF705E2F505D5A33C5
:100EE00008F0595F5C9311961C9211971296019627
:100EF0008431910539F73FBF8091E800877F809367
:100F0000E800CE0103966AE270E01ADD11C060913C
:100F10006C01AE014F5F5F4F62DABC010097C9F10F
:100F20008091E800877F8093E80089819A815FDD66
:100F30008091E8008B778093E8002BC0803841F5E2
:100F40008091E800877F8093E8008091660180931C
:100F5000F1008091E8008E778093E80011DC19C0E1
:100F60008823B1F490916A01923098F48091E8005E
:100F7000877F8093E8009093660102DC8091660190
:100F8000882311F084E001C083E08EBB05D901C045
:100F900016D98091E80083FF0AC08091EB0080623F
:100FA0008093EB008091E800877F8093E800AC9607
:100FB0000FB6F894DEBF0FBECDBFDF91CF911F916A
:100FC00008950895CF938EB3882361F0C091E9000E
:100FD000C7701092E9008091E80083FF01C09DDE98
:0C0FE000C093E900CF910895F894FFCF72
:100FEC005553425300000000000000000070000048
:100FFC00000000000A0000000000000000000000DB
:10100C008000021F0000004C5546410000000044C7
:10101C00617461666C617368204469736B000030A5
:04102C002E30300032
:00000001FF
